{"abi":[{"type":"constructor","inputs":[{"name":"_name","type":"string","internalType":"string"},{"name":"_symbol","type":"string","internalType":"string"}],"stateMutability":"nonpayable"},{"type":"function","name":"CLOCK_MODE","inputs":[],"outputs":[{"name":"","type":"string","internalType":"string"}],"stateMutability":"view"},{"type":"function","name":"DOMAIN_SEPARATOR","inputs":[],"outputs":[{"name":"","type":"bytes32","internalType":"bytes32"}],"stateMutability":"view"},{"type":"function","name":"allowance","inputs":[{"name":"owner","type":"address","internalType":"address"},{"name":"spender","type":"address","internalType":"address"}],"outputs":[{"name":"","type":"uint256","internalType":"uint256"}],"stateMutability":"view"},{"type":"function","name":"approve","inputs":[{"name":"spender","type":"address","internalType":"address"},{"name":"value","type":"uint256","internalType":"uint256"}],"outputs":[{"name":"","type":"bool","internalType":"bool"}],"stateMutability":"nonpayable"},{"type":"function","name":"balanceOf","inputs":[{"name":"account","type":"address","internalType":"address"}],"outputs":[{"name":"","type":"uint256","internalType":"uint256"}],"stateMutability":"view"},{"type":"function","name":"checkpoints","inputs":[{"name":"account","type":"address","internalType":"address"},{"name":"pos","type":"uint32","internalType":"uint32"}],"outputs":[{"name":"","type":"tuple","internalType":"struct Checkpoints.Checkpoint208","components":[{"name":"_key","type":"uint48","internalType":"uint48"},{"name":"_value","type":"uint208","internalType":"uint208"}]}],"stateMutability":"view"},{"type":"function","name":"clock","inputs":[],"outputs":[{"name":"","type":"uint48","internalType":"uint48"}],"stateMutability":"view"},{"type":"function","name":"decimals","inputs":[],"outputs":[{"name":"","type":"uint8","internalType":"uint8"}],"stateMutability":"view"},{"type":"function","name":"delegate","inputs":[{"name":"delegatee","type":"address","internalType":"address"}],"outputs":[],"stateMutability":"nonpayable"},{"type":"function","name":"delegateBySig","inputs":[{"name":"delegatee","type":"address","internalType":"address"},{"name":"nonce","type":"uint256","internalType":"uint256"},{"name":"expiry","type":"uint256","internalType":"uint256"},{"name":"v","type":"uint8","internalType":"uint8"},{"name":"r","type":"bytes32","internalType":"bytes32"},{"name":"s","type":"bytes32","internalType":"bytes32"}],"outputs":[],"stateMutability":"nonpayable"},{"type":"function","name":"delegates","inputs":[{"name":"account","type":"address","internalType":"address"}],"outputs":[{"name":"","type":"address","internalType":"address"}],"stateMutability":"view"},{"type":"function","name":"eip712Domain","inputs":[],"outputs":[{"name":"fields","type":"bytes1","internalType":"bytes1"},{"name":"name","type":"string","internalType":"string"},{"name":"version","type":"string","internalType":"string"},{"name":"chainId","type":"uint256","internalType":"uint256"},{"name":"verifyingContract","type":"address","internalType":"address"},{"name":"salt","type":"bytes32","internalType":"bytes32"},{"name":"extensions","type":"uint256[]","internalType":"uint256[]"}],"stateMutability":"view"},{"type":"function","name":"getPastTotalSupply","inputs":[{"name":"timepoint","type":"uint256","internalType":"uint256"}],"outputs":[{"name":"","type":"uint256","internalType":"uint256"}],"stateMutability":"view"},{"type":"function","name":"getPastVotes","inputs":[{"name":"account","type":"address","internalType":"address"},{"name":"timepoint","type":"uint256","internalType":"uint256"}],"outputs":[{"name":"","type":"uint256","internalType":"uint256"}],"stateMutability":"view"},{"type":"function","name":"getVotes","inputs":[{"name":"account","type":"address","internalType":"address"}],"outputs":[{"name":"","type":"uint256","internalType":"uint256"}],"stateMutability":"view"},{"type":"function","name":"name","inputs":[],"outputs":[{"name":"","type":"string","internalType":"string"}],"stateMutability":"view"},{"type":"function","name":"nonces","inputs":[{"name":"owner","type":"address","internalType":"address"}],"outputs":[{"name":"","type":"uint256","internalType":"uint256"}],"stateMutability":"view"},{"type":"function","name":"numCheckpoints","inputs":[{"name":"account","type":"address","internalType":"address"}],"outputs":[{"name":"","type":"uint32","internalType":"uint32"}],"stateMutability":"view"},{"type":"function","name":"permit","inputs":[{"name":"owner","type":"address","internalType":"address"},{"name":"spender","type":"address","internalType":"address"},{"name":"value","type":"uint256","internalType":"uint256"},{"name":"deadline","type":"uint256","internalType":"uint256"},{"name":"v","type":"uint8","internalType":"uint8"},{"name":"r","type":"bytes32","internalType":"bytes32"},{"name":"s","type":"bytes32","internalType":"bytes32"}],"outputs":[],"stateMutability":"nonpayable"},{"type":"function","name":"symbol","inputs":[],"outputs":[{"name":"","type":"string","internalType":"string"}],"stateMutability":"view"},{"type":"function","name":"totalSupply","inputs":[],"outputs":[{"name":"","type":"uint256","internalType":"uint256"}],"stateMutability":"view"},{"type":"function","name":"transfer","inputs":[{"name":"to","type":"address","internalType":"address"},{"name":"value","type":"uint256","internalType":"uint256"}],"outputs":[{"name":"","type":"bool","internalType":"bool"}],"stateMutability":"nonpayable"},{"type":"function","name":"transferFrom","inputs":[{"name":"from","type":"address","internalType":"address"},{"name":"to","type":"address","internalType":"address"},{"name":"value","type":"uint256","internalType":"uint256"}],"outputs":[{"name":"","type":"bool","internalType":"bool"}],"stateMutability":"nonpayable"},{"type":"event","name":"Approval","inputs":[{"name":"owner","type":"address","indexed":true,"internalType":"address"},{"name":"spender","type":"address","indexed":true,"internalType":"address"},{"name":"value","type":"uint256","indexed":false,"internalType":"uint256"}],"anonymous":false},{"type":"event","name":"DelegateChanged","inputs":[{"name":"delegator","type":"address","indexed":true,"internalType":"address"},{"name":"fromDelegate","type":"address","indexed":true,"internalType":"address"},{"name":"toDelegate","type":"address","indexed":true,"internalType":"address"}],"anonymous":false},{"type":"event","name":"DelegateVotesChanged","inputs":[{"name":"delegate","type":"address","indexed":true,"internalType":"address"},{"name":"previousVotes","type":"uint256","indexed":false,"internalType":"uint256"},{"name":"newVotes","type":"uint256","indexed":false,"internalType":"uint256"}],"anonymous":false},{"type":"event","name":"EIP712DomainChanged","inputs":[],"anonymous":false},{"type":"event","name":"Transfer","inputs":[{"name":"from","type":"address","indexed":true,"internalType":"address"},{"name":"to","type":"address","indexed":true,"internalType":"address"},{"name":"value","type":"uint256","indexed":false,"internalType":"uint256"}],"anonymous":false},{"type":"error","name":"CheckpointUnorderedInsertion","inputs":[]},{"type":"error","name":"ECDSAInvalidSignature","inputs":[]},{"type":"error","name":"ECDSAInvalidSignatureLength","inputs":[{"name":"length","type":"uint256","internalType":"uint256"}]},{"type":"error","name":"ECDSAInvalidSignatureS","inputs":[{"name":"s","type":"bytes32","internalType":"bytes32"}]},{"type":"error","name":"ERC20ExceededSafeSupply","inputs":[{"name":"increasedSupply","type":"uint256","internalType":"uint256"},{"name":"cap","type":"uint256","internalType":"uint256"}]},{"type":"error","name":"ERC20InsufficientAllowance","inputs":[{"name":"spender","type":"address","internalType":"address"},{"name":"allowance","type":"uint256","internalType":"uint256"},{"name":"needed","type":"uint256","internalType":"uint256"}]},{"type":"error","name":"ERC20InsufficientBalance","inputs":[{"name":"sender","type":"address","internalType":"address"},{"name":"balance","type":"uint256","internalType":"uint256"},{"name":"needed","type":"uint256","internalType":"uint256"}]},{"type":"error","name":"ERC20InvalidApprover","inputs":[{"name":"approver","type":"address","internalType":"address"}]},{"type":"error","name":"ERC20InvalidReceiver","inputs":[{"name":"receiver","type":"address","internalType":"address"}]},{"type":"error","name":"ERC20InvalidSender","inputs":[{"name":"sender","type":"address","internalType":"address"}]},{"type":"error","name":"ERC20InvalidSpender","inputs":[{"name":"spender","type":"address","internalType":"address"}]},{"type":"error","name":"ERC2612ExpiredSignature","inputs":[{"name":"deadline","type":"uint256","internalType":"uint256"}]},{"type":"error","name":"ERC2612InvalidSigner","inputs":[{"name":"signer","type":"address","internalType":"address"},{"name":"owner","type":"address","internalType":"address"}]},{"type":"error","name":"ERC5805FutureLookup","inputs":[{"name":"timepoint","type":"uint256","internalType":"uint256"},{"name":"clock","type":"uint48","internalType":"uint48"}]},{"type":"error","name":"ERC6372InconsistentClock","inputs":[]},{"type":"error","name":"InvalidAccountNonce","inputs":[{"name":"account","type":"address","internalType":"address"},{"name":"currentNonce","type":"uint256","internalType":"uint256"}]},{"type":"error","name":"InvalidShortString","inputs":[]},{"type":"error","name":"SafeCastOverflowedUintDowncast","inputs":[{"name":"bits","type":"uint8","internalType":"uint8"},{"name":"value","type":"uint256","internalType":"uint256"}]},{"type":"error","name":"StringTooLong","inputs":[{"name":"str","type":"string","internalType":"string"}]},{"type":"error","name":"VotesExpiredSignature","inputs":[{"name":"expiry","type":"uint256","internalType":"uint256"}]}],"bytecode":{"object":"0x610160604052348015610010575f5ffd5b506040516121cf3803806121cf83398101604081905261002f91610238565b6040805180820190915260018152603160f81b602082015282908190818460036100598382610321565b5060046100668282610321565b5061007691508390506005610123565b61012052610085816006610123565b61014052815160208084019190912060e052815190820120610100524660a05261011160e05161010051604080517f8b73c3c69bb8fe3d512ecc4cf759cc79239f7b179b0ffacaa9a75d522b39400f60208201529081019290925260608201524660808201523060a08201525f9060c00160405160208183030381529060405280519060200120905090565b60805250503060c05250610433915050565b5f60208351101561013e5761013783610155565b905061014f565b816101498482610321565b5060ff90505b92915050565b5f5f829050601f81511115610188578260405163305a27a960e01b815260040161017f91906103db565b60405180910390fd5b805161019382610410565b179392505050565b634e487b7160e01b5f52604160045260245ffd5b5f82601f8301126101be575f5ffd5b81516001600160401b038111156101d7576101d761019b565b604051601f8201601f19908116603f011681016001600160401b03811182821017156102055761020561019b565b60405281815283820160200185101561021c575f5ffd5b8160208501602083015e5f918101602001919091529392505050565b5f5f60408385031215610249575f5ffd5b82516001600160401b0381111561025e575f5ffd5b61026a858286016101af565b602085015190935090506001600160401b03811115610287575f5ffd5b610293858286016101af565b9150509250929050565b600181811c908216806102b157607f821691505b6020821081036102cf57634e487b7160e01b5f52602260045260245ffd5b50919050565b601f82111561031c57805f5260205f20601f840160051c810160208510156102fa5750805b601f840160051c820191505b81811015610319575f8155600101610306565b50505b505050565b81516001600160401b0381111561033a5761033a61019b565b61034e81610348845461029d565b846102d5565b6020601f821160018114610380575f83156103695750848201515b5f19600385901b1c1916600184901b178455610319565b5f84815260208120601f198516915b828110156103af578785015182556020948501946001909201910161038f565b50848210156103cc57868401515f19600387901b60f8161c191681555b50505050600190811b01905550565b602081525f82518060208401528060208501604085015e5f604082850101526040601f19601f83011684010191505092915050565b805160208083015191908110156102cf575f1960209190910360031b1b16919050565b60805160a05160c05160e051610100516101205161014051611d4b6104845f395f610c8201525f610c5501525f610a2c01525f610a0401525f61095f01525f61098901525f6109b30152611d4b5ff3fe608060405234801561000f575f5ffd5b5060043610610184575f3560e01c806370a08231116100dd5780639ab24eb011610088578063d505accf11610063578063d505accf14610369578063dd62ed3e1461037c578063f1127ed8146103b4575f5ffd5b80639ab24eb014610330578063a9059cbb14610343578063c3cda52014610356575f5ffd5b80638e539e8c116100b85780638e539e8c146102f657806391ddadf41461030957806395d89b4114610328575f5ffd5b806370a08231146102a05780637ecebe00146102c857806384b0196e146102db575f5ffd5b80633644e5151161013d578063587cde1e11610118578063587cde1e146102205780635c19a95c146102635780636fcfff4514610278575f5ffd5b80633644e515146101fd5780633a46b1a8146102055780634bf5d7e914610218575f5ffd5b806318160ddd1161016d57806318160ddd146101c957806323b872dd146101db578063313ce567146101ee575f5ffd5b806306fdde0314610188578063095ea7b3146101a6575b5f5ffd5b6101906103f3565b60405161019d919061197d565b60405180910390f35b6101b96101b43660046119aa565b610483565b604051901515815260200161019d565b6002545b60405190815260200161019d565b6101b96101e93660046119d2565b61049c565b6040516012815260200161019d565b6101cd6104bf565b6101cd6102133660046119aa565b6104cd565b610190610507565b61024b61022e366004611a0c565b6001600160a01b039081165f908152600860205260409020541690565b6040516001600160a01b03909116815260200161019d565b610276610271366004611a0c565b61057f565b005b61028b610286366004611a0c565b61058e565b60405163ffffffff909116815260200161019d565b6101cd6102ae366004611a0c565b6001600160a01b03165f9081526020819052604090205490565b6101cd6102d6366004611a0c565b610598565b6102e36105a2565b60405161019d9796959493929190611a25565b6101cd610304366004611abb565b6105e4565b610311610608565b60405165ffffffffffff909116815260200161019d565b610190610611565b6101cd61033e366004611a0c565b610620565b6101b96103513660046119aa565b610640565b610276610364366004611ae2565b61064d565b610276610377366004611b36565b61070e565b6101cd61038a366004611b9c565b6001600160a01b039182165f90815260016020908152604080832093909416825291909152205490565b6103c76103c2366004611bcd565b610844565b60408051825165ffffffffffff1681526020928301516001600160d01b0316928101929092520161019d565b60606003805461040290611c0a565b80601f016020809104026020016040519081016040528092919081815260200182805461042e90611c0a565b80156104795780601f1061045057610100808354040283529160200191610479565b820191905f5260205f20905b81548152906001019060200180831161045c57829003601f168201915b5050505050905090565b5f33610490818585610868565b60019150505b92915050565b5f336104a985828561087a565b6104b48585856108f6565b506001949350505050565b5f6104c8610953565b905090565b5f6104f76104da83610a7c565b6001600160a01b0385165f90815260096020526040902090610aca565b6001600160d01b03169392505050565b6060610511610b7d565b65ffffffffffff16610521610608565b65ffffffffffff1614610547576040516301bfc1c560e61b815260040160405180910390fd5b5060408051808201909152601d81527f6d6f64653d626c6f636b6e756d6265722666726f6d3d64656661756c74000000602082015290565b3361058a8183610b87565b5050565b5f61049682610c10565b5f61049682610c31565b5f6060805f5f5f60606105b3610c4e565b6105bb610c7b565b604080515f80825260208201909252600f60f81b9b939a50919850469750309650945092509050565b5f6105f96105f183610a7c565b600a90610aca565b6001600160d01b031692915050565b5f6104c8610b7d565b60606004805461040290611c0a565b6001600160a01b0381165f9081526009602052604081206105f990610ca8565b5f336104908185856108f6565b8342111561067657604051632341d78760e11b8152600481018590526024015b60405180910390fd5b604080517fe48329057bfd03d55e49b547132e39cffd9c1820ad7b9d4c5307691425d15adf60208201526001600160a01b0388169181019190915260608101869052608081018590525f906106ef906106e79060a00160405160208183030381529060405280519060200120610ce2565b858585610d0e565b90506106fb8187610d3a565b6107058188610b87565b50505050505050565b834211156107325760405163313c898160e11b81526004810185905260240161066d565b5f7f6e71edae12b1b97f4d1f60370fef10105fa2faae0126114a169c64845d6126c988888861077d8c6001600160a01b03165f90815260076020526040902080546001810190915590565b6040805160208101969096526001600160a01b0394851690860152929091166060840152608083015260a082015260c0810186905260e0016040516020818303038152906040528051906020012090505f6107d782610ce2565b90505f6107e682878787610d0e565b9050896001600160a01b0316816001600160a01b03161461082d576040516325c0072360e11b81526001600160a01b0380831660048301528b16602482015260440161066d565b6108388a8a8a610868565b50505050505050505050565b604080518082019091525f80825260208201526108618383610d8c565b9392505050565b6108758383836001610dc0565b505050565b6001600160a01b038381165f908152600160209081526040808320938616835292905220545f198110156108f057818110156108e257604051637dc7a0d960e11b81526001600160a01b0384166004820152602481018290526044810183905260640161066d565b6108f084848484035f610dc0565b50505050565b6001600160a01b03831661091f57604051634b637e8f60e11b81525f600482015260240161066d565b6001600160a01b0382166109485760405163ec442f0560e01b81525f600482015260240161066d565b610875838383610e92565b5f306001600160a01b037f0000000000000000000000000000000000000000000000000000000000000000161480156109ab57507f000000000000000000000000000000000000000000000000000000000000000046145b156109d557507f000000000000000000000000000000000000000000000000000000000000000090565b6104c8604080517f8b73c3c69bb8fe3d512ecc4cf759cc79239f7b179b0ffacaa9a75d522b39400f60208201527f0000000000000000000000000000000000000000000000000000000000000000918101919091527f000000000000000000000000000000000000000000000000000000000000000060608201524660808201523060a08201525f9060c00160405160208183030381529060405280519060200120905090565b5f5f610a86610608565b90508065ffffffffffff168310610ac157604051637669fc0f60e11b81526004810184905265ffffffffffff8216602482015260440161066d565b61086183610e9d565b81545f9081816005811115610b26575f610ae384610ed3565b610aed9085611c56565b5f8881526020902090915081015465ffffffffffff9081169087161015610b1657809150610b24565b610b21816001611c69565b92505b505b5f610b3387878585611038565b90508015610b7057610b5787610b4a600184611c56565b5f91825260209091200190565b54660100000000000090046001600160d01b0316610b72565b5f5b979650505050505050565b5f6104c843610e9d565b6001600160a01b038281165f8181526008602052604080822080548686167fffffffffffffffffffffffff0000000000000000000000000000000000000000821681179092559151919094169392849290917f3134e8a2e6d97e929a7e54011ea5485d7d196dd5f0ba4d4ef95803e8e3fc257f9190a46108758183610c0b86611097565b6110b4565b6001600160a01b0381165f908152600960205260408120546104969061121d565b6001600160a01b0381165f90815260076020526040812054610496565b60606104c87f0000000000000000000000000000000000000000000000000000000000000000600561124d565b60606104c87f0000000000000000000000000000000000000000000000000000000000000000600661124d565b80545f908015610cda57610cc183610b4a600184611c56565b54660100000000000090046001600160d01b0316610861565b5f9392505050565b5f610496610cee610953565b8360405161190160f01b8152600281019290925260228201526042902090565b5f5f5f5f610d1e888888886112f6565b925092509250610d2e82826113be565b50909695505050505050565b6001600160a01b0382165f908152600760205260409020805460018101909155818114610875576040516301d4b62360e61b81526001600160a01b03841660048201526024810182905260440161066d565b604080518082019091525f80825260208201526001600160a01b0383165f9081526009602052604090206108619083611476565b6001600160a01b038416610de95760405163e602df0560e01b81525f600482015260240161066d565b6001600160a01b038316610e1257604051634a1406b160e11b81525f600482015260240161066d565b6001600160a01b038085165f90815260016020908152604080832093871683529290522082905580156108f057826001600160a01b0316846001600160a01b03167f8c5be1e5ebec7d5bd14f71427d1e84f3dd0314c0f7b2291e5b200ac8c7c3b92584604051610e8491815260200190565b60405180910390a350505050565b6108758383836114e6565b5f65ffffffffffff821115610ecf576040516306dfcc6560e41b8152603060048201526024810183905260440161066d565b5090565b5f60018211610ee0575090565b8160017001000000000000000000000000000000008210610f065760809190911c9060401b5b680100000000000000008210610f215760409190911c9060201b5b6401000000008210610f385760209190911c9060101b5b620100008210610f4d5760109190911c9060081b5b6101008210610f615760089190911c9060041b5b60108210610f745760049190911c9060021b5b60048210610f805760011b5b600302600190811c90818581610f9857610f98611c7c565b048201901c90506001818581610fb057610fb0611c7c565b048201901c90506001818581610fc857610fc8611c7c565b048201901c90506001818581610fe057610fe0611c7c565b048201901c90506001818581610ff857610ff8611c7c565b048201901c9050600181858161101057611010611c7c565b048201901c905061102f81858161102957611029611c7c565b04821190565b90039392505050565b5f5b8183101561108f575f61104d848461154c565b5f8781526020902090915065ffffffffffff86169082015465ffffffffffff16111561107b57809250611089565b611086816001611c69565b93505b5061103a565b509392505050565b6001600160a01b0381165f90815260208190526040812054610496565b816001600160a01b0316836001600160a01b0316141580156110d557505f81115b15610875576001600160a01b0383161561117c576001600160a01b0383165f90815260096020526040812081906111179061156661111286611571565b6115a4565b6001600160d01b031691506001600160d01b03169150846001600160a01b03167fdec2bacdd2f05b59de34da9b523dff8be42e5e38e818c82fdb0bae774387a7248383604051611171929190918252602082015260400190565b60405180910390a250505b6001600160a01b03821615610875576001600160a01b0382165f90815260096020526040812081906111b4906115dc61111286611571565b6001600160d01b031691506001600160d01b03169150836001600160a01b03167fdec2bacdd2f05b59de34da9b523dff8be42e5e38e818c82fdb0bae774387a724838360405161120e929190918252602082015260400190565b60405180910390a25050505050565b5f63ffffffff821115610ecf576040516306dfcc6560e41b8152602060048201526024810183905260440161066d565b606060ff831461126757611260836115e7565b9050610496565b81805461127390611c0a565b80601f016020809104026020016040519081016040528092919081815260200182805461129f90611c0a565b80156112ea5780601f106112c1576101008083540402835291602001916112ea565b820191905f5260205f20905b8154815290600101906020018083116112cd57829003601f168201915b50505050509050610496565b5f80807f7fffffffffffffffffffffffffffffff5d576e7357a4501ddfe92f46681b20a084111561132f57505f915060039050826113b4565b604080515f808252602082018084528a905260ff891692820192909252606081018790526080810186905260019060a0016020604051602081039080840390855afa158015611380573d5f5f3e3d5ffd5b5050604051601f1901519150506001600160a01b0381166113ab57505f9250600191508290506113b4565b92505f91508190505b9450945094915050565b5f8260038111156113d1576113d1611c90565b036113da575050565b60018260038111156113ee576113ee611c90565b0361140c5760405163f645eedf60e01b815260040160405180910390fd5b600282600381111561142057611420611c90565b036114415760405163fce698f760e01b81526004810182905260240161066d565b600382600381111561145557611455611c90565b0361058a576040516335e2f38360e21b81526004810182905260240161066d565b604080518082019091525f8082526020820152825f018263ffffffff16815481106114a3576114a3611ca4565b5f9182526020918290206040805180820190915291015465ffffffffffff81168252660100000000000090046001600160d01b0316918101919091529392505050565b6114f1838383611624565b6001600160a01b038316611541575f61150960025490565b90506001600160d01b038082111561153e57604051630e58ae9360e11b8152600481018390526024810182905260440161066d565b50505b61087583838361174a565b5f61155a6002848418611cb8565b61086190848416611c69565b5f6108618284611cd7565b5f6001600160d01b03821115610ecf576040516306dfcc6560e41b815260d060048201526024810183905260440161066d565b5f5f6115cf6115b1610608565b6115c76115bd88610ca8565b868863ffffffff16565b8791906117bf565b915091505b935093915050565b5f6108618284611cf6565b60605f6115f3836117cc565b6040805160208082528183019092529192505f91906020820181803683375050509182525060208101929092525090565b6001600160a01b03831661164e578060025f8282546116439190611c69565b909155506116be9050565b6001600160a01b0383165f90815260208190526040902054818110156116a05760405163391434e360e21b81526001600160a01b0385166004820152602481018290526044810183905260640161066d565b6001600160a01b0384165f9081526020819052604090209082900390555b6001600160a01b0382166116da576002805482900390556116f8565b6001600160a01b0382165f9081526020819052604090208054820190555b816001600160a01b0316836001600160a01b03167fddf252ad1be2c89b69c2b068fc378daa952ba7f163c4a11628f55a4df523b3ef8360405161173d91815260200190565b60405180910390a3505050565b6001600160a01b03831661176c57611769600a6115dc61111284611571565b50505b6001600160a01b03821661178e5761178b600a61156661111284611571565b50505b6001600160a01b038381165f90815260086020526040808220548584168352912054610875929182169116836110b4565b5f806115cf8585856117f3565b5f60ff8216601f81111561049657604051632cd44ac360e21b815260040160405180910390fd5b82545f90819080156118f2575f61180f87610b4a600185611c56565b805490915065ffffffffffff80821691660100000000000090046001600160d01b031690881682111561185557604051632520601d60e01b815260040160405180910390fd5b8765ffffffffffff168265ffffffffffff160361189157825465ffffffffffff1666010000000000006001600160d01b038916021783556118e4565b6040805180820190915265ffffffffffff808a1682526001600160d01b03808a1660208085019182528d54600181018f555f8f815291909120945191519092166601000000000000029216919091179101555b94508593506115d492505050565b50506040805180820190915265ffffffffffff80851682526001600160d01b0380851660208085019182528854600181018a555f8a81529182209551925190931666010000000000000291909316179201919091559050816115d4565b5f81518084528060208401602086015e5f602082860101526020601f19601f83011685010191505092915050565b602081525f610861602083018461194f565b80356001600160a01b03811681146119a5575f5ffd5b919050565b5f5f604083850312156119bb575f5ffd5b6119c48361198f565b946020939093013593505050565b5f5f5f606084860312156119e4575f5ffd5b6119ed8461198f565b92506119fb6020850161198f565b929592945050506040919091013590565b5f60208284031215611a1c575f5ffd5b6108618261198f565b60ff60f81b8816815260e060208201525f611a4360e083018961194f565b8281036040840152611a55818961194f565b606084018890526001600160a01b038716608085015260a0840186905283810360c0850152845180825260208087019350909101905f5b81811015611aaa578351835260209384019390920191600101611a8c565b50909b9a5050505050505050505050565b5f60208284031215611acb575f5ffd5b5035919050565b803560ff811681146119a5575f5ffd5b5f5f5f5f5f5f60c08789031215611af7575f5ffd5b611b008761198f565b95506020870135945060408701359350611b1c60608801611ad2565b9598949750929560808101359460a0909101359350915050565b5f5f5f5f5f5f5f60e0888a031215611b4c575f5ffd5b611b558861198f565b9650611b636020890161198f565b95506040880135945060608801359350611b7f60808901611ad2565b9699959850939692959460a0840135945060c09093013592915050565b5f5f60408385031215611bad575f5ffd5b611bb68361198f565b9150611bc46020840161198f565b90509250929050565b5f5f60408385031215611bde575f5ffd5b611be78361198f565b9150602083013563ffffffff81168114611bff575f5ffd5b809150509250929050565b600181811c90821680611c1e57607f821691505b602082108103611c3c57634e487b7160e01b5f52602260045260245ffd5b50919050565b634e487b7160e01b5f52601160045260245ffd5b8181038181111561049657610496611c42565b8082018082111561049657610496611c42565b634e487b7160e01b5f52601260045260245ffd5b634e487b7160e01b5f52602160045260245ffd5b634e487b7160e01b5f52603260045260245ffd5b5f82611cd257634e487b7160e01b5f52601260045260245ffd5b500490565b6001600160d01b03828116828216039081111561049657610496611c42565b6001600160d01b03818116838216019081111561049657610496611c4256fea2646970667358221220ac7ca0fb8322b743a4cc70cc570defd776c8bdaca0985387a92b8382ef3fc22764736f6c634300081e0033","linkReferences":{}},"methodIdentifiers":{"CLOCK_MODE()":"4bf5d7e9","DOMAIN_SEPARATOR()":"3644e515","allowance(address,address)":"dd62ed3e","approve(address,uint256)":"095ea7b3","balanceOf(address)":"70a08231","checkpoints(address,uint32)":"f1127ed8","clock()":"91ddadf4","decimals()":"313ce567","delegate(address)":"5c19a95c","delegateBySig(address,uint256,uint256,uint8,bytes32,bytes32)":"c3cda520","delegates(address)":"587cde1e","eip712Domain()":"84b0196e","getPastTotalSupply(uint256)":"8e539e8c","getPastVotes(address,uint256)":"3a46b1a8","getVotes(address)":"9ab24eb0","name()":"06fdde03","nonces(address)":"7ecebe00","numCheckpoints(address)":"6fcfff45","permit(address,address,uint256,uint256,uint8,bytes32,bytes32)":"d505accf","symbol()":"95d89b41","totalSupply()":"18160ddd","transfer(address,uint256)":"a9059cbb","transferFrom(address,address,uint256)":"23b872dd"},"id":63}