{"abi":[{"type":"constructor","inputs":[{"name":"_name","type":"string","internalType":"string"},{"name":"_symbol","type":"string","internalType":"string"}],"stateMutability":"nonpayable"},{"type":"function","name":"CLOCK_MODE","inputs":[],"outputs":[{"name":"","type":"string","internalType":"string"}],"stateMutability":"view"},{"type":"function","name":"DOMAIN_SEPARATOR","inputs":[],"outputs":[{"name":"","type":"bytes32","internalType":"bytes32"}],"stateMutability":"view"},{"type":"function","name":"allowance","inputs":[{"name":"owner","type":"address","internalType":"address"},{"name":"spender","type":"address","internalType":"address"}],"outputs":[{"name":"","type":"uint256","internalType":"uint256"}],"stateMutability":"view"},{"type":"function","name":"approve","inputs":[{"name":"spender","type":"address","internalType":"address"},{"name":"value","type":"uint256","internalType":"uint256"}],"outputs":[{"name":"","type":"bool","internalType":"bool"}],"stateMutability":"nonpayable"},{"type":"function","name":"balanceOf","inputs":[{"name":"account","type":"address","internalType":"address"}],"outputs":[{"name":"","type":"uint256","internalType":"uint256"}],"stateMutability":"view"},{"type":"function","name":"checkpoints","inputs":[{"name":"account","type":"address","internalType":"address"},{"name":"pos","type":"uint32","internalType":"uint32"}],"outputs":[{"name":"","type":"tuple","internalType":"struct Checkpoints.Checkpoint208","components":[{"name":"_key","type":"uint48","internalType":"uint48"},{"name":"_value","type":"uint208","internalType":"uint208"}]}],"stateMutability":"view"},{"type":"function","name":"clock","inputs":[],"outputs":[{"name":"","type":"uint48","internalType":"uint48"}],"stateMutability":"view"},{"type":"function","name":"decimals","inputs":[],"outputs":[{"name":"","type":"uint8","internalType":"uint8"}],"stateMutability":"view"},{"type":"function","name":"delegate","inputs":[{"name":"delegatee","type":"address","internalType":"address"}],"outputs":[],"stateMutability":"nonpayable"},{"type":"function","name":"delegateBySig","inputs":[{"name":"delegatee","type":"address","internalType":"address"},{"name":"nonce","type":"uint256","internalType":"uint256"},{"name":"expiry","type":"uint256","internalType":"uint256"},{"name":"v","type":"uint8","internalType":"uint8"},{"name":"r","type":"bytes32","internalType":"bytes32"},{"name":"s","type":"bytes32","internalType":"bytes32"}],"outputs":[],"stateMutability":"nonpayable"},{"type":"function","name":"delegates","inputs":[{"name":"account","type":"address","internalType":"address"}],"outputs":[{"name":"","type":"address","internalType":"address"}],"stateMutability":"view"},{"type":"function","name":"eip712Domain","inputs":[],"outputs":[{"name":"fields","type":"bytes1","internalType":"bytes1"},{"name":"name","type":"string","internalType":"string"},{"name":"version","type":"string","internalType":"string"},{"name":"chainId","type":"uint256","internalType":"uint256"},{"name":"verifyingContract","type":"address","internalType":"address"},{"name":"salt","type":"bytes32","internalType":"bytes32"},{"name":"extensions","type":"uint256[]","internalType":"uint256[]"}],"stateMutability":"view"},{"type":"function","name":"getPastTotalSupply","inputs":[{"name":"timepoint","type":"uint256","internalType":"uint256"}],"outputs":[{"name":"","type":"uint256","internalType":"uint256"}],"stateMutability":"view"},{"type":"function","name":"getPastVotes","inputs":[{"name":"account","type":"address","internalType":"address"},{"name":"timepoint","type":"uint256","internalType":"uint256"}],"outputs":[{"name":"","type":"uint256","internalType":"uint256"}],"stateMutability":"view"},{"type":"function","name":"getVotes","inputs":[{"name":"account","type":"address","internalType":"address"}],"outputs":[{"name":"","type":"uint256","internalType":"uint256"}],"stateMutability":"view"},{"type":"function","name":"name","inputs":[],"outputs":[{"name":"","type":"string","internalType":"string"}],"stateMutability":"view"},{"type":"function","name":"nonces","inputs":[{"name":"owner","type":"address","internalType":"address"}],"outputs":[{"name":"","type":"uint256","internalType":"uint256"}],"stateMutability":"view"},{"type":"function","name":"numCheckpoints","inputs":[{"name":"account","type":"address","internalType":"address"}],"outputs":[{"name":"","type":"uint32","internalType":"uint32"}],"stateMutability":"view"},{"type":"function","name":"permit","inputs":[{"name":"owner","type":"address","internalType":"address"},{"name":"spender","type":"address","internalType":"address"},{"name":"value","type":"uint256","internalType":"uint256"},{"name":"deadline","type":"uint256","internalType":"uint256"},{"name":"v","type":"uint8","internalType":"uint8"},{"name":"r","type":"bytes32","internalType":"bytes32"},{"name":"s","type":"bytes32","internalType":"bytes32"}],"outputs":[],"stateMutability":"nonpayable"},{"type":"function","name":"symbol","inputs":[],"outputs":[{"name":"","type":"string","internalType":"string"}],"stateMutability":"view"},{"type":"function","name":"totalSupply","inputs":[],"outputs":[{"name":"","type":"uint256","internalType":"uint256"}],"stateMutability":"view"},{"type":"function","name":"transfer","inputs":[{"name":"to","type":"address","internalType":"address"},{"name":"value","type":"uint256","internalType":"uint256"}],"outputs":[{"name":"","type":"bool","internalType":"bool"}],"stateMutability":"nonpayable"},{"type":"function","name":"transferFrom","inputs":[{"name":"from","type":"address","internalType":"address"},{"name":"to","type":"address","internalType":"address"},{"name":"value","type":"uint256","internalType":"uint256"}],"outputs":[{"name":"","type":"bool","internalType":"bool"}],"stateMutability":"nonpayable"},{"type":"event","name":"Approval","inputs":[{"name":"owner","type":"address","indexed":true,"internalType":"address"},{"name":"spender","type":"address","indexed":true,"internalType":"address"},{"name":"value","type":"uint256","indexed":false,"internalType":"uint256"}],"anonymous":false},{"type":"event","name":"DelegateChanged","inputs":[{"name":"delegator","type":"address","indexed":true,"internalType":"address"},{"name":"fromDelegate","type":"address","indexed":true,"internalType":"address"},{"name":"toDelegate","type":"address","indexed":true,"internalType":"address"}],"anonymous":false},{"type":"event","name":"DelegateVotesChanged","inputs":[{"name":"delegate","type":"address","indexed":true,"internalType":"address"},{"name":"previousVotes","type":"uint256","indexed":false,"internalType":"uint256"},{"name":"newVotes","type":"uint256","indexed":false,"internalType":"uint256"}],"anonymous":false},{"type":"event","name":"EIP712DomainChanged","inputs":[],"anonymous":false},{"type":"event","name":"Transfer","inputs":[{"name":"from","type":"address","indexed":true,"internalType":"address"},{"name":"to","type":"address","indexed":true,"internalType":"address"},{"name":"value","type":"uint256","indexed":false,"internalType":"uint256"}],"anonymous":false},{"type":"error","name":"CheckpointUnorderedInsertion","inputs":[]},{"type":"error","name":"ECDSAInvalidSignature","inputs":[]},{"type":"error","name":"ECDSAInvalidSignatureLength","inputs":[{"name":"length","type":"uint256","internalType":"uint256"}]},{"type":"error","name":"ECDSAInvalidSignatureS","inputs":[{"name":"s","type":"bytes32","internalType":"bytes32"}]},{"type":"error","name":"ERC20ExceededSafeSupply","inputs":[{"name":"increasedSupply","type":"uint256","internalType":"uint256"},{"name":"cap","type":"uint256","internalType":"uint256"}]},{"type":"error","name":"ERC20InsufficientAllowance","inputs":[{"name":"spender","type":"address","internalType":"address"},{"name":"allowance","type":"uint256","internalType":"uint256"},{"name":"needed","type":"uint256","internalType":"uint256"}]},{"type":"error","name":"ERC20InsufficientBalance","inputs":[{"name":"sender","type":"address","internalType":"address"},{"name":"balance","type":"uint256","internalType":"uint256"},{"name":"needed","type":"uint256","internalType":"uint256"}]},{"type":"error","name":"ERC20InvalidApprover","inputs":[{"name":"approver","type":"address","internalType":"address"}]},{"type":"error","name":"ERC20InvalidReceiver","inputs":[{"name":"receiver","type":"address","internalType":"address"}]},{"type":"error","name":"ERC20InvalidSender","inputs":[{"name":"sender","type":"address","internalType":"address"}]},{"type":"error","name":"ERC20InvalidSpender","inputs":[{"name":"spender","type":"address","internalType":"address"}]},{"type":"error","name":"ERC2612ExpiredSignature","inputs":[{"name":"deadline","type":"uint256","internalType":"uint256"}]},{"type":"error","name":"ERC2612InvalidSigner","inputs":[{"name":"signer","type":"address","internalType":"address"},{"name":"owner","type":"address","internalType":"address"}]},{"type":"error","name":"ERC5805FutureLookup","inputs":[{"name":"timepoint","type":"uint256","internalType":"uint256"},{"name":"clock","type":"uint48","internalType":"uint48"}]},{"type":"error","name":"ERC6372InconsistentClock","inputs":[]},{"type":"error","name":"InvalidAccountNonce","inputs":[{"name":"account","type":"address","internalType":"address"},{"name":"currentNonce","type":"uint256","internalType":"uint256"}]},{"type":"error","name":"InvalidShortString","inputs":[]},{"type":"error","name":"SafeCastOverflowedUintDowncast","inputs":[{"name":"bits","type":"uint8","internalType":"uint8"},{"name":"value","type":"uint256","internalType":"uint256"}]},{"type":"error","name":"StringTooLong","inputs":[{"name":"str","type":"string","internalType":"string"}]},{"type":"error","name":"VotesExpiredSignature","inputs":[{"name":"expiry","type":"uint256","internalType":"uint256"}]}],"bytecode":{"object":"0x610160604052346100c657613119803803809161001b826100de565b610160396040816101600191126100c657610160516001600160401b0381116100c6578161004c916101600161013e565b610180516001600160401b0381116100c6576100759261006f916101600161013e565b906101d2565b6040516123289081610db1823960805181611338015260a051816113f5015260c05181611309015260e05181611387015261010051816113ad015261012051816107a3015261014051816107cc0152f35b5f80fd5b634e487b7160e01b5f52604160045260245ffd5b610160601f91909101601f19168101906001600160401b0382119082101761010557604052565b6100ca565b601f909101601f19168101906001600160401b0382119082101761010557604052565b6040519061013c60408361010a565b565b81601f820112156100c6578051906001600160401b0382116101055760405192610172601f8401601f19166020018561010a565b828452602083830101116100c657815f9260208093018386015e8301015290565b634e487b7160e01b5f52601160045260245ffd5b60ff16604d81116101b857600a0a90565b610193565b9081620f42400291620f42408304036101b857565b604051906101e160408361010a565b60018252603160f81b6020830190815281519093906001600160401b0381116101055761021881610213600354610339565b610371565b6020601f82116001146102b557816102519392610249925f916102aa575b508160011b915f199060031b1c19161790565b600355610410565b61025a8161059c565b6101205261026782610691565b610140526020815191012060e052519020610100524660a052610288610783565b6080523060c05261013c6102a461029f60126101a7565b6101bd565b336104f5565b90508501515f610236565b60035f52601f198216907fc2575a0e9e593c00f959f8c92f12db2869c3395a3b0502d05e2516446f71f85b915f5b8181106103215750918391610251959460019410610309575b5050811b01600355610410565b8601515f1960f88460031b161c191690555f806102fc565b9192602060018192868a0151815501940192016102e3565b90600182811c92168015610367575b602083101461035357565b634e487b7160e01b5f52602260045260245ffd5b91607f1691610348565b601f811161037d575050565b60035f5260205f20906020601f840160051c830193106103b7575b601f0160051c01905b8181106103ac575050565b5f81556001016103a1565b9091508190610398565b601f82116103ce57505050565b5f5260205f20906020601f840160051c83019310610406575b601f0160051c01905b8181106103fb575050565b5f81556001016103f0565b90915081906103e7565b80519091906001600160401b0381116101055761043981610432600454610339565b60046103c1565b602092601f821160011461047957610469929382915f9261046e575b50508160011b915f199060031b1c19161790565b600455565b015190505f80610455565b60045f52601f198216937f8a35acfbc15ff81a39ae7d344fd709f28e8600b4aa8c65c6b64bfe7fe36bd19b915f5b8681106104dd57508360019596106104c5575b505050811b01600455565b01515f1960f88460031b161c191690555f80806104ba565b919260206001819286850151815501940192016104a7565b91906001600160a01b0383168015610589576002548281018091116101b8576002555f81815260208181526040808320805486019055518481527fddf252ad1be2c89b69c2b068fc378daa952ba7f163c4a11628f55a4df523b3ef9190a3600254926001600160d01b03808511610572575061013c92935061084c565b630e58ae9360e11b5f52600485905260245260445ffd5b63ec442f0560e01b5f525f60045260245ffd5b908151602081105f146105b75750906105b4906107e1565b90565b6001600160401b038111610105576105db816105d4600554610339565b60056103c1565b602092601f82116001146106125761060a929382915f9261046e5750508160011b915f199060031b1c19161790565b60055560ff90565b60055f52601f198216937f036b6384b5eca791c62761152d0c79bb0604c104a5fb6f4eb0703f3154bb3db0915f5b8681106106795750836001959610610661575b505050811b0160055560ff90565b01515f1960f88460031b161c191690555f8080610653565b91926020600181928685015181550194019201610640565b908151602081105f146106a95750906105b4906107e1565b6001600160401b038111610105576106cd816106c6600654610339565b60066103c1565b602092601f8211600114610704576106fc929382915f9261046e5750508160011b915f199060031b1c19161790565b60065560ff90565b60065f52601f198216937ff652222313e28459528d920b65115c16c04f3efc82aaedc97be59f3f377c0d3f915f5b86811061076b5750836001959610610753575b505050811b0160065560ff90565b01515f1960f88460031b161c191690555f8080610745565b91926020600181928685015181550194019201610732565b60e051610100516040519060208201927f8b73c3c69bb8fe3d512ecc4cf759cc79239f7b179b0ffacaa9a75d522b39400f8452604083015260608201524660808201523060a082015260a081526107db60c08261010a565b51902090565b601f81511161080c5760208151910151602082106107fd571790565b5f198260200360031b1b161790565b604460209160405192839163305a27a960e01b83528160048401528051918291826024860152018484015e5f828201840152601f01601f19168101030190fd5b906108568161094b565b9165ffffffffffff431161093357600a54806108fd575061089061088061013c945f5b6001610d54565b65ffffffffffff4316600a610c21565b50506001600160a01b031680156108e5575b60086020527f5eff886ea0ce6ca488a3d6e336d6c0f75f46d19b42c06ce5ee98e42c96d256c7545f9182526040909120546001600160a01b039081169116610a7a565b6108f66108f18361094b565b61097c565b50506108a2565b92835f198101116101b857600a5f525f5160206130d95f395f51905f529093015461013c9361089091610880919060301c610879565b6306dfcc6560e41b5f5260306004524360245260445ffd5b6001600160d01b038111610965576001600160d01b031690565b6306dfcc6560e41b5f5260d060045260245260445ffd5b65ffffffffffff431161093357600a54806109a657506108806109a2915f5b6002610d54565b9091565b805f198101116101b857600a5f525f5160206130d95f395f51905f5201546109a2916108809160301c61099b565b65ffffffffffff431161093357805480610a0857506109f86109a2925f6002610d54565b9065ffffffffffff431690610c21565b805f198101116101b8575f82815260209020015f1901546109a2926109f89160301c61099b565b65ffffffffffff431161093357805480610a5357506109f86109a2925f6001610d54565b805f198101116101b8575f82815260209020015f1901546109a2926109f89160301c610879565b6001600160a01b03808316939291908116908185141580610b6d575b610aa2575b5050505050565b81610b13575b505082610ab7575b8080610a9b565b6001600160a01b03165f9081526009602052604090205f5160206130f95f395f51905f5291610af091610aea909161094b565b90610a2f565b604080516001600160d01b039384168152919092166020820152a25f8080610ab0565b6001600160a01b03165f9081526009602052604090205f5160206130f95f395f51905f5290610b4b90610b458661094b565b906109d4565b604080516001600160d01b039384168152919092166020820152a25f80610aa8565b50831515610a96565b5f198101919082116101b857565b908154680100000000000000008110156101055760018101808455811015610bd7575f9283526020928390208251929093015160301b65ffffffffffff191665ffffffffffff9290921691909117910155565b634e487b7160e01b5f52603260045260245ffd5b604080519192919081016001600160401b0381118282101761010557604052915465ffffffffffff8116835260301c6020830152565b805492939291908215610d2b57610c4d610c48610c3d85610b76565b835f5260205f200190565b610beb565b9065ffffffffffff610c65835165ffffffffffff1690565b8185169182911611610d1c57610ce0946020948892610c98610c8d875165ffffffffffff1690565b65ffffffffffff1690565b03610ce45750610cd292610cae610cb992610b76565b905f5260205f200190565b9065ffffffffffff82549181199060301b169116179055565b01516001600160d01b031690565b9190565b915050610d1791610d04610cf661012d565b65ffffffffffff9093168352565b6001600160d01b03881682860152610b84565b610cd2565b632520601d60e01b5f5260045ffd5b610d4f9250610d3b610cf661012d565b6001600160d01b0385166020830152610b84565b5f9190565b91909180600114610d9657600214610d7a57634e487b7160e01b5f52605160045260245ffd5b6001600160d01b03908116918116919091039081116101b85790565b506001600160d01b03918216908216019081116101b8579056fe60806040526004361015610011575f80fd5b5f3560e01c806306fdde0314610184578063095ea7b31461017f57806318160ddd1461017a57806323b872dd14610175578063313ce567146101705780633644e5151461016b5780633a46b1a8146101665780634bf5d7e914610161578063587cde1e1461015c5780635c19a95c146101575780636fcfff451461015257806370a082311461014d5780637ecebe001461014857806384b0196e146101435780638e539e8c1461013e57806391ddadf41461013957806395d89b41146101345780639ab24eb01461012f578063a9059cbb1461012a578063c3cda52014610125578063d505accf14610120578063dd62ed3e1461011b5763f1127ed814610116575f80fd5b610ee0565b610e6d565b610cd2565b610b64565b610b1e565b610ab6565b610a11565b6109e6565b6108c2565b61078b565b610746565b610704565b61067c565b610658565b6105fd565b610554565b61048c565b61046a565b61044f565b610370565b610353565b610322565b6101e0565b907fffffffffffffffffffffffffffffffffffffffffffffffffffffffffffffffe0601f602080948051918291828752018686015e5f8582860101520116010190565b9060206101dd928181520190610189565b90565b346102d8575f6003193601126102d8576040515f60035461020081610fc2565b80845290600181169081156102965750600114610238575b6102348361022881850382611101565b604051918291826101cc565b0390f35b60035f9081527fc2575a0e9e593c00f959f8c92f12db2869c3395a3b0502d05e2516446f71f85b939250905b80821061027c57509091508101602001610228610218565b919260018160209254838588010152019101909291610264565b7fffffffffffffffffffffffffffffffffffffffffffffffffffffffffffffff001660208086019190915291151560051b840190910191506102289050610218565b5f80fd5b6004359073ffffffffffffffffffffffffffffffffffffffff821682036102d857565b6024359073ffffffffffffffffffffffffffffffffffffffff821682036102d857565b346102d85760406003193601126102d85761034861033e6102dc565b6024359033611639565b602060405160018152f35b346102d8575f6003193601126102d8576020600254604051908152f35b346102d85760606003193601126102d8576103896102dc565b6103916102ff565b6044359073ffffffffffffffffffffffffffffffffffffffff83165f5260016020526103de3360405f209073ffffffffffffffffffffffffffffffffffffffff165f5260205260405f2090565b54925f1984036103ff575b6103f3935061116b565b60405160018152602090f35b82841061041b57610416836103f39503338361172e565b6103e9565b82847ffb8f41b2000000000000000000000000000000000000000000000000000000005f523360045260245260445260645ffd5b346102d8575f6003193601126102d857602060405160128152f35b346102d8575f6003193601126102d85760206104846112f2565b604051908152f35b346102d85760406003193601126102d8576104a56102dc565b60243565ffffffffffff6104b84361141b565b16808210156105255761023479ffffffffffffffffffffffffffffffffffffffffffffffffffff6105148473ffffffffffffffffffffffffffffffffffffffff87165f52600960205261050e60405f209161141b565b9061147f565b604051911681529081906020820190565b907fecd3f81e000000000000000000000000000000000000000000000000000000005f5260045260245260445ffd5b346102d8575f6003193601126102d85761056d4361141b565b65ffffffffffff8061057e4361141b565b169116036105d557610234604051610597604082611101565b601d81527f6d6f64653d626c6f636b6e756d6265722666726f6d3d64656661756c740000006020820152604051918291602083526020830190610189565b7f6ff07140000000000000000000000000000000000000000000000000000000005f5260045ffd5b346102d85760206003193601126102d85773ffffffffffffffffffffffffffffffffffffffff61062b6102dc565b165f526008602052602073ffffffffffffffffffffffffffffffffffffffff60405f205416604051908152f35b346102d85760206003193601126102d85761067a6106746102dc565b33611510565b005b346102d85760206003193601126102d85773ffffffffffffffffffffffffffffffffffffffff6106aa6102dc565b165f52600960205260405f205463ffffffff81116106d45760405163ffffffff9091168152602090f35b7f6dfcc650000000000000000000000000000000000000000000000000000000005f52602060045260245260445ffd5b346102d85760206003193601126102d85760206104846107226102dc565b73ffffffffffffffffffffffffffffffffffffffff165f525f60205260405f205490565b346102d85760206003193601126102d85773ffffffffffffffffffffffffffffffffffffffff6107746102dc565b165f526007602052602060405f2054604051908152f35b346102d8575f6003193601126102d8576108696107c77f0000000000000000000000000000000000000000000000000000000000000000611b31565b6107f07f0000000000000000000000000000000000000000000000000000000000000000611baa565b60206040516107ff8282611101565b5f815281610877818301947fffffffffffffffffffffffffffffffffffffffffffffffffffffffffffffffe083013687376040519788977f0f00000000000000000000000000000000000000000000000000000000000000895260e0858a015260e0890190610189565b908782036040890152610189565b914660608701523060808701525f60a087015285830360c087015251918281520192915f5b8281106108ab57505050500390f35b83518552869550938101939281019260010161089c565b346102d85760206003193601126102d85760043565ffffffffffff6108e64361141b565b1690818110156109b8576108f99061141b565b600a54905f82916005841161095f575b6109159350600a611946565b80610943575060205f5b79ffffffffffffffffffffffffffffffffffffffffffffffffffff60405191168152f35b61094e602091611463565b600a5f52815f20015460301c61091f565b919261096a816117d3565b81039081116109b35761091593600a5f5265ffffffffffff8260205f2001541665ffffffffffff8516105f146109a1575091610909565b9291506109ad90611471565b90610909565b610f95565b7fecd3f81e000000000000000000000000000000000000000000000000000000005f5260045260245260445ffd5b346102d8575f6003193601126102d8576020610a014361141b565b65ffffffffffff60405191168152f35b346102d8575f6003193601126102d8576040515f600454610a3181610fc2565b80845290600181169081156102965750600114610a58576102348361022881850382611101565b60045f9081527f8a35acfbc15ff81a39ae7d344fd709f28e8600b4aa8c65c6b64bfe7fe36bd19b939250905b808210610a9c57509091508101602001610228610218565b919260018160209254838588010152019101909291610a84565b346102d85760206003193601126102d85773ffffffffffffffffffffffffffffffffffffffff610ae46102dc565b165f526009602052602079ffffffffffffffffffffffffffffffffffffffffffffffffffff610b1560405f206115c0565b16604051908152f35b346102d85760406003193601126102d857610348610b3a6102dc565b602435903361116b565b6064359060ff821682036102d857565b6084359060ff821682036102d857565b346102d85760c06003193601126102d857610b7d6102dc565b60243590604435610b8c610b44565b6084359060a43592804211610ca75791610c1f9391610c11610c169460405160208101917fe48329057bfd03d55e49b547132e39cffd9c1820ad7b9d4c5307691425d15adf835273ffffffffffffffffffffffffffffffffffffffff8a1660408301528a6060830152608082015260808152610c0960a082611101565b5190206115e9565b611be1565b90929192611cb2565b610c508173ffffffffffffffffffffffffffffffffffffffff165f52600760205260405f2080549060018201905590565b809303610c615761067a9250611510565b73ffffffffffffffffffffffffffffffffffffffff91507f752d88c0000000000000000000000000000000000000000000000000000000005f521660045260245260445ffd5b7f4683af0e000000000000000000000000000000000000000000000000000000005f5260045260245ffd5b346102d85760e06003193601126102d857610ceb6102dc565b610cf36102ff565b6044359060643592610d03610b54565b60a43560c43590864211610e4157610dd392610dce610d498673ffffffffffffffffffffffffffffffffffffffff165f52600760205260405f2080549060018201905590565b9860405160208101917f6e71edae12b1b97f4d1f60370fef10105fa2faae0126114a169c64845d6126c9835273ffffffffffffffffffffffffffffffffffffffff89169b8c604084015273ffffffffffffffffffffffffffffffffffffffff8b1660608401528b608084015260a083015260c082015260c08152610c0960e082611101565b61162a565b9373ffffffffffffffffffffffffffffffffffffffff851603610dfa5761067a9350611639565b7f4b800e46000000000000000000000000000000000000000000000000000000005f5273ffffffffffffffffffffffffffffffffffffffff8085166004521660245260445ffd5b867f62791302000000000000000000000000000000000000000000000000000000005f5260045260245ffd5b346102d85760406003193601126102d8576020610ed7610e8b6102dc565b73ffffffffffffffffffffffffffffffffffffffff610ea86102ff565b91165f526001835260405f209073ffffffffffffffffffffffffffffffffffffffff165f5260205260405f2090565b54604051908152f35b346102d85760406003193601126102d857610ef96102dc565b6024359063ffffffff821682036102d857610f599173ffffffffffffffffffffffffffffffffffffffff610f5392610f2f611153565b50610f38611153565b50165f52600960205260405f20610f4d611153565b50611d79565b50611dbb565b60408051825165ffffffffffff16815260209283015179ffffffffffffffffffffffffffffffffffffffffffffffffffff169281019290925290f35b7f4e487b71000000000000000000000000000000000000000000000000000000005f52601160045260245ffd5b90600182811c92168015611009575b6020831014610fdc57565b7f4e487b71000000000000000000000000000000000000000000000000000000005f52602260045260245ffd5b91607f1691610fd1565b5f929181549161102283610fc2565b8083529260018116908115611077575060011461103e57505050565b5f9081526020812093945091925b83831061105d575060209250010190565b60018160209294939454838587010152019101919061104c565b905060209495507fffffffffffffffffffffffffffffffffffffffffffffffffffffffffffffff0091509291921683830152151560051b010190565b7f4e487b71000000000000000000000000000000000000000000000000000000005f52604160045260245ffd5b6040810190811067ffffffffffffffff8211176110fc57604052565b6110b3565b90601f7fffffffffffffffffffffffffffffffffffffffffffffffffffffffffffffffe0910116810190811067ffffffffffffffff8211176110fc57604052565b60405190611151604083611101565b565b60405190611160826110e0565b5f6020838281520152565b92919073ffffffffffffffffffffffffffffffffffffffff84169384156112c65773ffffffffffffffffffffffffffffffffffffffff8216801561129a576111d08273ffffffffffffffffffffffffffffffffffffffff165f525f60205260405f2090565b548481106112665795846111519697036112078473ffffffffffffffffffffffffffffffffffffffff165f525f60205260405f2090565b5561122f8473ffffffffffffffffffffffffffffffffffffffff165f525f60205260405f2090565b8054860190556040518581527fddf252ad1be2c89b69c2b068fc378daa952ba7f163c4a11628f55a4df523b3ef90602090a3611f86565b8490877fe450d38c000000000000000000000000000000000000000000000000000000005f5260045260245260445260645ffd5b7fec442f05000000000000000000000000000000000000000000000000000000005f525f60045260245ffd5b7f96c6fd1e000000000000000000000000000000000000000000000000000000005f525f60045260245ffd5b73ffffffffffffffffffffffffffffffffffffffff7f0000000000000000000000000000000000000000000000000000000000000000163014806113f2575b1561135a577f000000000000000000000000000000000000000000000000000000000000000090565b60405160208101907f8b73c3c69bb8fe3d512ecc4cf759cc79239f7b179b0ffacaa9a75d522b39400f82527f000000000000000000000000000000000000000000000000000000000000000060408201527f000000000000000000000000000000000000000000000000000000000000000060608201524660808201523060a082015260a081526113ec60c082611101565b51902090565b507f00000000000000000000000000000000000000000000000000000000000000004614611331565b65ffffffffffff81116114335765ffffffffffff1690565b7f6dfcc650000000000000000000000000000000000000000000000000000000005f52603060045260245260445ffd5b905f1982019182116109b357565b90600182018092116109b357565b908154905f8291600584116114bd575b61149a935084611946565b806114a55750505f90565b6114ae90611463565b905f5260205f20015460301c90565b91926114c8816117d3565b81039081116109b35761149a93855f5265ffffffffffff8260205f2001541665ffffffffffff8516105f146114fe57509161148f565b92915061150a90611471565b9061148f565b73ffffffffffffffffffffffffffffffffffffffff8181165f81815260086020526040812080548685167fffffffffffffffffffffffff000000000000000000000000000000000000000082168117909255611151969416946115ba9390928691907f3134e8a2e6d97e929a7e54011ea5485d7d196dd5f0ba4d4ef95803e8e3fc257f9080a473ffffffffffffffffffffffffffffffffffffffff165f525f60205260405f205490565b916119aa565b8054806115cd5750505f90565b805f198101116109b3575f19915f5260205f2001015460301c90565b6042906115f46112f2565b90604051917f19010000000000000000000000000000000000000000000000000000000000008352600283015260228201522090565b916101dd9391610c1693611be1565b73ffffffffffffffffffffffffffffffffffffffff169081156117025773ffffffffffffffffffffffffffffffffffffffff81169283156116d657806116c97f8c5be1e5ebec7d5bd14f71427d1e84f3dd0314c0f7b2291e5b200ac8c7c3b92593855f52600160205260405f209073ffffffffffffffffffffffffffffffffffffffff165f5260205260405f2090565b55604051908152602090a3565b7f94280d62000000000000000000000000000000000000000000000000000000005f525f60045260245ffd5b7fe602df05000000000000000000000000000000000000000000000000000000005f525f60045260245ffd5b73ffffffffffffffffffffffffffffffffffffffff169081156117025773ffffffffffffffffffffffffffffffffffffffff8116156116d657611799915f52600160205260405f209073ffffffffffffffffffffffffffffffffffffffff165f5260205260405f2090565b55565b81156117a6570490565b7f4e487b71000000000000000000000000000000000000000000000000000000005f52601260045260245ffd5b8015611941576101dd906118d76118d06118c66118bc6118b26118a861189e61189460016118825f8b608081901c80611933575b50806118166118789260401c90565b80611926575b506118278160201c90565b80611919575b506118388160101c90565b8061190c575b506118498160081c90565b806118ff575b5061185a8160041c90565b806118f2575b5061186b8160021c90565b806118e5575b5060011c90565b6118dd5760011c90565b1b61188d818b61179c565b0160011c90565b61188d818a61179c565b61188d818961179c565b61188d818861179c565b61188d818761179c565b61188d818661179c565b61188d818561179c565b809261179c565b90611ddf565b820160011c90565b600291509201915f611871565b600491509201915f611860565b600891509201915f61184f565b601091509201915f61183e565b602091509201915f61182d565b604091509201915f61181c565b608092509050611878611807565b505f90565b91905b8382106119565750505090565b9091928083169080841860011c82018092116109b357845f5265ffffffffffff8260205f2001541665ffffffffffff8416105f146119985750925b9190611949565b9392506119a490611471565b91611991565b919073ffffffffffffffffffffffffffffffffffffffff81169273ffffffffffffffffffffffffffffffffffffffff8116908482141580611b28575b6119f2575b5050505050565b81611aa5575b505082611a07575b80806119eb565b611a9a611a817fdec2bacdd2f05b59de34da9b523dff8be42e5e38e818c82fdb0bae774387a72493611a7b611a7579ffffffffffffffffffffffffffffffffffffffffffffffffffff9573ffffffffffffffffffffffffffffffffffffffff165f52600960205260405f2090565b91611df1565b90611ec5565b6040805192851683529316602082015291829190820190565b0390a25f8080611a00565b79ffffffffffffffffffffffffffffffffffffffffffffffffffff611b1e611a81611b0f7fdec2bacdd2f05b59de34da9b523dff8be42e5e38e818c82fdb0bae774387a7249473ffffffffffffffffffffffffffffffffffffffff165f52600960205260405f2090565b611b1888611df1565b90611e61565b0390a25f806119f8565b508315156119e6565b60ff8114611b905760ff811690601f8211611b685760405191611b55604084611101565b6020808452838101919036833783525290565b7fb3512b0c000000000000000000000000000000000000000000000000000000005f5260045ffd5b506040516101dd81611ba3816005611013565b0382611101565b60ff8114611bce5760ff811690601f8211611b685760405191611b55604084611101565b506040516101dd81611ba3816006611013565b91907f7fffffffffffffffffffffffffffffff5d576e7357a4501ddfe92f46681b20a08411611c70579160209360809260ff5f9560405194855216868401526040830152606082015282805260015afa15611c65575f5173ffffffffffffffffffffffffffffffffffffffff811615611c5b57905f905f90565b505f906001905f90565b6040513d5f823e3d90fd5b5050505f9160039190565b60041115611c8557565b7f4e487b71000000000000000000000000000000000000000000000000000000005f52602160045260245ffd5b611cbb81611c7b565b80611cc4575050565b611ccd81611c7b565b60018103611cfd577ff645eedf000000000000000000000000000000000000000000000000000000005f5260045ffd5b611d0681611c7b565b60028103611d3a57507ffce698f7000000000000000000000000000000000000000000000000000000005f5260045260245ffd5b80611d46600392611c7b565b14611d4e5750565b7fd78bce0c000000000000000000000000000000000000000000000000000000005f5260045260245ffd5b8054821015611d8e575f5260205f2001905f90565b7f4e487b71000000000000000000000000000000000000000000000000000000005f52603260045260245ffd5b90604051611dc8816110e0565b915465ffffffffffff8116835260301c6020830152565b9080821015611dec575090565b905090565b79ffffffffffffffffffffffffffffffffffffffffffffffffffff8111611e315779ffffffffffffffffffffffffffffffffffffffffffffffffffff1690565b7f6dfcc650000000000000000000000000000000000000000000000000000000005f5260d060045260245260445ffd5b90611e6b4361141b565b9079ffffffffffffffffffffffffffffffffffffffffffffffffffff80611e91856115c0565b92169116039079ffffffffffffffffffffffffffffffffffffffffffffffffffff82116109b357611ec19261214f565b9091565b90611ecf4361141b565b9079ffffffffffffffffffffffffffffffffffffffffffffffffffff80611ef5856115c0565b92169116019079ffffffffffffffffffffffffffffffffffffffffffffffffffff82116109b357611ec19261214f565b611f2e4361141b565b9079ffffffffffffffffffffffffffffffffffffffffffffffffffff80611f55600a6115c0565b921691160379ffffffffffffffffffffffffffffffffffffffffffffffffffff81116109b357611ec191600a61214f565b90919073ffffffffffffffffffffffffffffffffffffffff16801561202b575b73ffffffffffffffffffffffffffffffffffffffff6111519316908115612013575b5f52600860205273ffffffffffffffffffffffffffffffffffffffff60405f205416905f52600860205273ffffffffffffffffffffffffffffffffffffffff60405f205416906119aa565b61202461201f84611df1565b611f25565b5050611fc8565b61203482611df1565b9261203e4361141b565b9379ffffffffffffffffffffffffffffffffffffffffffffffffffff80612065600a6115c0565b92169116019079ffffffffffffffffffffffffffffffffffffffffffffffffffff82116109b3576111519473ffffffffffffffffffffffffffffffffffffffff926120b191600a61214f565b905050935050611fa6565b8054680100000000000000008110156110fc576120de91600182018155611d79565b6121235781516020929092015160301b7fffffffffffffffffffffffffffffffffffffffffffffffffffff0000000000001665ffffffffffff92909216919091179055565b7f4e487b71000000000000000000000000000000000000000000000000000000005f525f60045260245ffd5b8054929392919082156122b65761217b61217661216b85611463565b835f5260205f200190565b611dbb565b9065ffffffffffff612193835165ffffffffffff1690565b818516918291161161228e5761223f9460209488926121c66121bb875165ffffffffffff1690565b65ffffffffffff1690565b03612243575061221e926121dc6121e792611463565b905f5260205f200190565b9065ffffffffffff7fffffffffffffffffffffffffffffffffffffffffffffffffffff00000000000083549260301b169116179055565b015179ffffffffffffffffffffffffffffffffffffffffffffffffffff1690565b9190565b91505061228991612263612255611142565b65ffffffffffff9093168352565b79ffffffffffffffffffffffffffffffffffffffffffffffffffff8816828601526120bc565b61221e565b7f2520601d000000000000000000000000000000000000000000000000000000005f5260045ffd5b6122ed92506122c6612255611142565b79ffffffffffffffffffffffffffffffffffffffffffffffffffff851660208301526120bc565b5f919056fea2646970667358221220cb89699c79768bc3cd23980a2d8df505ff79cc910da389d420be7fb07932380564736f6c634300081e0033c65a7bb8d6351c1cf70c95a316cc6a92839c986682d98bc35f958f4883f9d2a7dec2bacdd2f05b59de34da9b523dff8be42e5e38e818c82fdb0bae774387a724","linkReferences":{}},"methodIdentifiers":{"CLOCK_MODE()":"4bf5d7e9","DOMAIN_SEPARATOR()":"3644e515","allowance(address,address)":"dd62ed3e","approve(address,uint256)":"095ea7b3","balanceOf(address)":"70a08231","checkpoints(address,uint32)":"f1127ed8","clock()":"91ddadf4","decimals()":"313ce567","delegate(address)":"5c19a95c","delegateBySig(address,uint256,uint256,uint8,bytes32,bytes32)":"c3cda520","delegates(address)":"587cde1e","eip712Domain()":"84b0196e","getPastTotalSupply(uint256)":"8e539e8c","getPastVotes(address,uint256)":"3a46b1a8","getVotes(address)":"9ab24eb0","name()":"06fdde03","nonces(address)":"7ecebe00","numCheckpoints(address)":"6fcfff45","permit(address,address,uint256,uint256,uint8,bytes32,bytes32)":"d505accf","symbol()":"95d89b41","totalSupply()":"18160ddd","transfer(address,uint256)":"a9059cbb","transferFrom(address,address,uint256)":"23b872dd"},"id":64}