{"abi":[{"type":"constructor","inputs":[{"name":"initialOwner","type":"address","internalType":"address"}],"stateMutability":"nonpayable"},{"type":"function","name":"createNode","inputs":[{"name":"_link","type":"string","internalType":"string"},{"name":"_plot","type":"string","internalType":"string"},{"name":"_previous","type":"uint256","internalType":"uint256"}],"outputs":[{"name":"","type":"uint256","internalType":"uint256"}],"stateMutability":"nonpayable"},{"type":"function","name":"getCanonChain","inputs":[],"outputs":[{"name":"","type":"uint256[]","internalType":"uint256[]"}],"stateMutability":"view"},{"type":"function","name":"getFullGraph","inputs":[],"outputs":[{"name":"ids","type":"uint256[]","internalType":"uint256[]"},{"name":"links","type":"string[]","internalType":"string[]"},{"name":"plots","type":"string[]","internalType":"string[]"},{"name":"previousIds","type":"uint256[]","internalType":"uint256[]"},{"name":"nextIds","type":"uint256[][]","internalType":"uint256[][]"},{"name":"canonFlags","type":"bool[]","internalType":"bool[]"}],"stateMutability":"view"},{"type":"function","name":"getLeaves","inputs":[],"outputs":[{"name":"","type":"uint256[]","internalType":"uint256[]"}],"stateMutability":"view"},{"type":"function","name":"getMedia","inputs":[{"name":"id","type":"uint256","internalType":"uint256"}],"outputs":[{"name":"","type":"string","internalType":"string"}],"stateMutability":"view"},{"type":"function","name":"getNode","inputs":[{"name":"id","type":"uint256","internalType":"uint256"}],"outputs":[{"name":"","type":"uint256","internalType":"uint256"},{"name":"","type":"string","internalType":"string"},{"name":"","type":"string","internalType":"string"},{"name":"","type":"uint256","internalType":"uint256"},{"name":"","type":"uint256[]","internalType":"uint256[]"},{"name":"","type":"bool","internalType":"bool"}],"stateMutability":"view"},{"type":"function","name":"getTimeline","inputs":[{"name":"fromId","type":"uint256","internalType":"uint256"}],"outputs":[{"name":"","type":"uint256[]","internalType":"uint256[]"}],"stateMutability":"view"},{"type":"function","name":"latestNodeId","inputs":[],"outputs":[{"name":"","type":"uint256","internalType":"uint256"}],"stateMutability":"view"},{"type":"function","name":"nodes","inputs":[{"name":"","type":"uint256","internalType":"uint256"}],"outputs":[{"name":"link","type":"string","internalType":"string"},{"name":"id","type":"uint256","internalType":"uint256"},{"name":"plot","type":"string","internalType":"string"},{"name":"previous","type":"uint256","internalType":"uint256"},{"name":"canon","type":"bool","internalType":"bool"}],"stateMutability":"view"},{"type":"function","name":"owner","inputs":[],"outputs":[{"name":"","type":"address","internalType":"address"}],"stateMutability":"view"},{"type":"function","name":"renounceOwnership","inputs":[],"outputs":[],"stateMutability":"nonpayable"},{"type":"function","name":"setCanon","inputs":[{"name":"id","type":"uint256","internalType":"uint256"}],"outputs":[],"stateMutability":"nonpayable"},{"type":"function","name":"setMedia","inputs":[{"name":"id","type":"uint256","internalType":"uint256"},{"name":"_link","type":"string","internalType":"string"}],"outputs":[],"stateMutability":"nonpayable"},{"type":"function","name":"transferOwnership","inputs":[{"name":"newOwner","type":"address","internalType":"address"}],"outputs":[],"stateMutability":"nonpayable"},{"type":"event","name":"NodeCanonized","inputs":[{"name":"id","type":"uint256","indexed":false,"internalType":"uint256"}],"anonymous":false},{"type":"event","name":"NodeCreated","inputs":[{"name":"id","type":"uint256","indexed":false,"internalType":"uint256"},{"name":"previous","type":"uint256","indexed":false,"internalType":"uint256"}],"anonymous":false},{"type":"event","name":"OwnershipTransferred","inputs":[{"name":"previousOwner","type":"address","indexed":true,"internalType":"address"},{"name":"newOwner","type":"address","indexed":true,"internalType":"address"}],"anonymous":false},{"type":"error","name":"OwnableInvalidOwner","inputs":[{"name":"owner","type":"address","internalType":"address"}]},{"type":"error","name":"OwnableUnauthorizedAccount","inputs":[{"name":"account","type":"address","internalType":"address"}]}],"bytecode":{"object":"0x6080604052348015600e575f5ffd5b50604051611734380380611734833981016040819052602b9160b4565b806001600160a01b038116605857604051631e4fbdf760e01b81525f600482015260240160405180910390fd5b605f816065565b505060df565b5f80546001600160a01b038381166001600160a01b0319831681178455604051919092169283917f8be0079c531659141344cd1fd0a4f28419497f9722a3daafe3b4186f6b6457e09190a35050565b5f6020828403121560c3575f5ffd5b81516001600160a01b038116811460d8575f5ffd5b9392505050565b611648806100ec5f395ff3fe608060405234801561000f575f5ffd5b50600436106100e4575f3560e01c80638da5cb5b11610088578063ad2b303711610063578063ad2b3037146101d9578063cbf41669146101e1578063dfa2ed6a146101f4578063f2fde38b14610214575f5ffd5b80638da5cb5b146101925780639ec99cdc146101ac578063a5277452146101bf575f5ffd5b80634f0f4aa9116100c35780634f0f4aa914610148578063715018a61461016d57806387949d5c146101775780638c8c65ed1461017f575f5ffd5b8062f3e6cd146100e85780631ab5f03b146101045780631c53c28014610124575b5f5ffd5b6100f160025481565b6040519081526020015b60405180910390f35b610117610112366004611041565b610227565b6040516100fb9190611092565b610137610132366004611041565b6102f0565b6040516100fb9594939291906110d9565b61015b610156366004611041565b61042d565b6040516100fb9695949392919061111d565b6101756105e2565b005b6101176105f5565b6100f161018d366004611216565b61069b565b5f546040516001600160a01b0390911681526020016100fb565b6101756101ba366004611284565b610792565b6101c76107ae565b6040516100fb96959493929190611354565b610117610c67565b6101756101ef366004611041565b610dc7565b610207610202366004611041565b610ed2565b6040516100fb9190611443565b610175610222366004611455565b610f71565b60605f825b8015610258578161023c8161148f565b5f928352600160205260409092206003015491925061022c9050565b5f8267ffffffffffffffff81111561027257610272611177565b60405190808252806020026020018201604052801561029b578160200160208202803683370190505b5085925090505f5b838110156102e757828282815181106102be576102be6114a7565b6020908102919091018101919091525f93845260019081905260409093206003015492016102a3565b50949350505050565b60016020525f908152604090208054819061030a906114bb565b80601f0160208091040260200160405190810160405280929190818152602001828054610336906114bb565b80156103815780601f1061035857610100808354040283529160200191610381565b820191905f5260205f20905b81548152906001019060200180831161036457829003601f168201915b50505050509080600101549080600201805461039c906114bb565b80601f01602080910402602001604051908101604052809291908181526020018280546103c8906114bb565b80156104135780601f106103ea57610100808354040283529160200191610413565b820191905f5260205f20905b8154815290600101906020018083116103f657829003601f168201915b50505050600383015460059093015491929160ff16905085565b5f8181526001602081905260408220908101546003820154600583015483546060948594879486948694849260028401929091600485019160ff16908590610474906114bb565b80601f01602080910402602001604051908101604052809291908181526020018280546104a0906114bb565b80156104eb5780601f106104c2576101008083540402835291602001916104eb565b820191905f5260205f20905b8154815290600101906020018083116104ce57829003601f168201915b505050505094508380546104fe906114bb565b80601f016020809104026020016040519081016040528092919081815260200182805461052a906114bb565b80156105755780601f1061054c57610100808354040283529160200191610575565b820191905f5260205f20905b81548152906001019060200180831161055857829003601f168201915b50505050509350818054806020026020016040519081016040528092919081815260200182805480156105c557602002820191905f5260205f20905b8154815260200190600101908083116105b1575b505050505091509650965096509650965096505091939550919395565b6105ea610fae565b6105f35f610fda565b565b60605f60015b6002548111610637575f8181526001602052604090206005015460ff161561062557809150610637565b8061062f8161148f565b9150506105fb565b50805f0361068c5760405162461bcd60e51b815260206004820152600c60248201527f4e6f2063616e6f6e20736574000000000000000000000000000000000000000060448201526064015b60405180910390fd5b61069581610227565b91505090565b600280545f91826106ab8361148f565b90915550506002545f8181526001602081905260409091209081018290556106d3868261153e565b505f8181526001602052604090206002016106ee858261153e565b505f818152600160205260408120600301849055839003610728575f818152600160208190526040909120600501805460ff191690911790555b8215610751575f8381526001602081815260408320600401805492830181558352909120018190555b60408051828152602081018590527f8d47c4bb1dbd859d425232504c4ac55a199d5f01a486ef0c77cbe926ba25e643910160405180910390a1949350505050565b5f8281526001602052604090206107a9828261153e565b505050565b6060806060806060805f60025490508067ffffffffffffffff8111156107d6576107d6611177565b6040519080825280602002602001820160405280156107ff578160200160208202803683370190505b5096508067ffffffffffffffff81111561081b5761081b611177565b60405190808252806020026020018201604052801561084e57816020015b60608152602001906001900390816108395790505b5095508067ffffffffffffffff81111561086a5761086a611177565b60405190808252806020026020018201604052801561089d57816020015b60608152602001906001900390816108885790505b5094508067ffffffffffffffff8111156108b9576108b9611177565b6040519080825280602002602001820160405280156108e2578160200160208202803683370190505b5093508067ffffffffffffffff8111156108fe576108fe611177565b60405190808252806020026020018201604052801561093157816020015b606081526020019060019003908161091c5790505b5092508067ffffffffffffffff81111561094d5761094d611177565b604051908082528060200260200182016040528015610976578160200160208202803683370190505b50915060015b818111610c5d575f8181526001602081905260409091208082015490918a906109a590856115f9565b815181106109b5576109b56114a7565b6020908102919091010152805481906109cd906114bb565b80601f01602080910402602001604051908101604052809291908181526020018280546109f9906114bb565b8015610a445780601f10610a1b57610100808354040283529160200191610a44565b820191905f5260205f20905b815481529060010190602001808311610a2757829003601f168201915b505050505088600184610a5791906115f9565b81518110610a6757610a676114a7565b6020026020010181905250806002018054610a81906114bb565b80601f0160208091040260200160405190810160405280929190818152602001828054610aad906114bb565b8015610af85780601f10610acf57610100808354040283529160200191610af8565b820191905f5260205f20905b815481529060010190602001808311610adb57829003601f168201915b505050505087600184610b0b91906115f9565b81518110610b1b57610b1b6114a7565b6020908102919091010152600381015486610b376001856115f9565b81518110610b4757610b476114a7565b6020908102919091010152600581015460ff1684610b666001856115f9565b81518110610b7657610b766114a7565b9115156020928302919091019091015260048101545f8167ffffffffffffffff811115610ba557610ba5611177565b604051908082528060200260200182016040528015610bce578160200160208202803683370190505b5090505f5b82811015610c1e57836004018181548110610bf057610bf06114a7565b905f5260205f200154828281518110610c0b57610c0b6114a7565b6020908102919091010152600101610bd3565b508087610c2c6001876115f9565b81518110610c3c57610c3c6114a7565b60200260200101819052505050508080610c559061148f565b91505061097c565b5050909192939495565b60605f60025467ffffffffffffffff811115610c8557610c85611177565b604051908082528060200260200182016040528015610cae578160200160208202803683370190505b5090505f60015b6002548111610d2f575f818152600160208190526040909120015415801590610cec57505f81815260016020526040902060040154155b15610d1d5780838381518110610d0457610d046114a7565b602090810291909101015281610d198161148f565b9250505b80610d278161148f565b915050610cb5565b505f8167ffffffffffffffff811115610d4a57610d4a611177565b604051908082528060200260200182016040528015610d73578160200160208202803683370190505b5090505f5b82811015610dbf57838181518110610d9257610d926114a7565b6020026020010151828281518110610dac57610dac6114a7565b6020908102919091010152600101610d78565b509392505050565b610dcf610fae565b5f818152600160208190526040822001549003610e2e5760405162461bcd60e51b815260206004820152601360248201527f4e6f646520646f6573206e6f74206578697374000000000000000000000000006044820152606401610683565b60015b6002548111610e7e575f8181526001602052604090206005015460ff1615610e6c575f818152600160205260409020600501805460ff191690555b80610e768161148f565b915050610e31565b505f81815260016020818152604092839020600501805460ff191690921790915590518281527ff0366b8b5672da28af8e05316b0c07459ebb982516697a10653cc3fc19afa9eb910160405180910390a150565b5f818152600160205260409020805460609190610eee906114bb565b80601f0160208091040260200160405190810160405280929190818152602001828054610f1a906114bb565b8015610f655780601f10610f3c57610100808354040283529160200191610f65565b820191905f5260205f20905b815481529060010190602001808311610f4857829003601f168201915b50505050509050919050565b610f79610fae565b6001600160a01b038116610fa257604051631e4fbdf760e01b81525f6004820152602401610683565b610fab81610fda565b50565b5f546001600160a01b031633146105f35760405163118cdaa760e01b8152336004820152602401610683565b5f80546001600160a01b038381167fffffffffffffffffffffffff0000000000000000000000000000000000000000831681178455604051919092169283917f8be0079c531659141344cd1fd0a4f28419497f9722a3daafe3b4186f6b6457e09190a35050565b5f60208284031215611051575f5ffd5b5035919050565b5f8151808452602084019350602083015f5b8281101561108857815186526020958601959091019060010161106a565b5093949350505050565b602081525f6110a46020830184611058565b9392505050565b5f81518084528060208401602086015e5f602082860101526020601f19601f83011685010191505092915050565b60a081525f6110eb60a08301886110ab565b866020840152828103604084015261110381876110ab565b606084019590955250509015156080909101529392505050565b86815260c060208201525f61113560c08301886110ab565b828103604084015261114781886110ab565b905085606084015282810360808401526111618186611058565b91505082151560a0830152979650505050505050565b634e487b7160e01b5f52604160045260245ffd5b5f82601f83011261119a575f5ffd5b813567ffffffffffffffff8111156111b4576111b4611177565b604051601f8201601f19908116603f0116810167ffffffffffffffff811182821017156111e3576111e3611177565b6040528181528382016020018510156111fa575f5ffd5b816020850160208301375f918101602001919091529392505050565b5f5f5f60608486031215611228575f5ffd5b833567ffffffffffffffff81111561123e575f5ffd5b61124a8682870161118b565b935050602084013567ffffffffffffffff811115611266575f5ffd5b6112728682870161118b565b93969395505050506040919091013590565b5f5f60408385031215611295575f5ffd5b82359150602083013567ffffffffffffffff8111156112b2575f5ffd5b6112be8582860161118b565b9150509250929050565b5f82825180855260208501945060208160051b830101602085015f5b8381101561131657601f198584030188526113008383516110ab565b60209889019890935091909101906001016112e4565b50909695505050505050565b5f8151808452602084019350602083015f5b828110156110885781511515865260209586019590910190600101611334565b60c081525f61136660c0830189611058565b828103602084015261137881896112c8565b9050828103604084015261138c81886112c8565b905082810360608401526113a08187611058565b9050828103608084015280855180835260208301915060208160051b840101602088015f5b8381101561141f57858303601f19018552815180518085526020918201918501905f5b818110156114065783518352602093840193909201916001016113e8565b50506020968701969094509290920191506001016113c5565b505085810360a08701526114338188611322565b9c9b505050505050505050505050565b602081525f6110a460208301846110ab565b5f60208284031215611465575f5ffd5b81356001600160a01b03811681146110a4575f5ffd5b634e487b7160e01b5f52601160045260245ffd5b5f600182016114a0576114a061147b565b5060010190565b634e487b7160e01b5f52603260045260245ffd5b600181811c908216806114cf57607f821691505b6020821081036114ed57634e487b7160e01b5f52602260045260245ffd5b50919050565b601f8211156107a957805f5260205f20601f840160051c810160208510156115185750805b601f840160051c820191505b81811015611537575f8155600101611524565b5050505050565b815167ffffffffffffffff81111561155857611558611177565b61156c8161156684546114bb565b846114f3565b6020601f82116001811461159e575f83156115875750848201515b5f19600385901b1c1916600184901b178455611537565b5f84815260208120601f198516915b828110156115cd57878501518255602094850194600190920191016115ad565b50848210156115ea57868401515f19600387901b60f8161c191681555b50505050600190811b01905550565b8181038181111561160c5761160c61147b565b9291505056fea2646970667358221220996c8a4fe85e5d919fccbf50cc8ba1a65eb7335d1cefb0c6e925882a63499b2264736f6c634300081e0033","linkReferences":{}},"methodIdentifiers":{"createNode(string,string,uint256)":"8c8c65ed","getCanonChain()":"87949d5c","getFullGraph()":"a5277452","getLeaves()":"ad2b3037","getMedia(uint256)":"dfa2ed6a","getNode(uint256)":"4f0f4aa9","getTimeline(uint256)":"1ab5f03b","latestNodeId()":"00f3e6cd","nodes(uint256)":"1c53c280","owner()":"8da5cb5b","renounceOwnership()":"715018a6","setCanon(uint256)":"cbf41669","setMedia(uint256,string)":"9ec99cdc","transferOwnership(address)":"f2fde38b"},"id":68}