{"abi":[{"type":"constructor","inputs":[{"name":"_token","type":"address","internalType":"contract IVotes"}],"stateMutability":"nonpayable"},{"type":"receive","stateMutability":"payable"},{"type":"function","name":"BALLOT_TYPEHASH","inputs":[],"outputs":[{"name":"","type":"bytes32","internalType":"bytes32"}],"stateMutability":"view"},{"type":"function","name":"CLOCK_MODE","inputs":[],"outputs":[{"name":"","type":"string","internalType":"string"}],"stateMutability":"view"},{"type":"function","name":"COUNTING_MODE","inputs":[],"outputs":[{"name":"","type":"string","internalType":"string"}],"stateMutability":"pure"},{"type":"function","name":"EXTENDED_BALLOT_TYPEHASH","inputs":[],"outputs":[{"name":"","type":"bytes32","internalType":"bytes32"}],"stateMutability":"view"},{"type":"function","name":"cancel","inputs":[{"name":"targets","type":"address[]","internalType":"address[]"},{"name":"values","type":"uint256[]","internalType":"uint256[]"},{"name":"calldatas","type":"bytes[]","internalType":"bytes[]"},{"name":"descriptionHash","type":"bytes32","internalType":"bytes32"}],"outputs":[{"name":"","type":"uint256","internalType":"uint256"}],"stateMutability":"nonpayable"},{"type":"function","name":"castVote","inputs":[{"name":"proposalId","type":"uint256","internalType":"uint256"},{"name":"support","type":"uint8","internalType":"uint8"}],"outputs":[{"name":"","type":"uint256","internalType":"uint256"}],"stateMutability":"nonpayable"},{"type":"function","name":"castVoteBySig","inputs":[{"name":"proposalId","type":"uint256","internalType":"uint256"},{"name":"support","type":"uint8","internalType":"uint8"},{"name":"voter","type":"address","internalType":"address"},{"name":"signature","type":"bytes","internalType":"bytes"}],"outputs":[{"name":"","type":"uint256","internalType":"uint256"}],"stateMutability":"nonpayable"},{"type":"function","name":"castVoteWithReason","inputs":[{"name":"proposalId","type":"uint256","internalType":"uint256"},{"name":"support","type":"uint8","internalType":"uint8"},{"name":"reason","type":"string","internalType":"string"}],"outputs":[{"name":"","type":"uint256","internalType":"uint256"}],"stateMutability":"nonpayable"},{"type":"function","name":"castVoteWithReasonAndParams","inputs":[{"name":"proposalId","type":"uint256","internalType":"uint256"},{"name":"support","type":"uint8","internalType":"uint8"},{"name":"reason","type":"string","internalType":"string"},{"name":"params","type":"bytes","internalType":"bytes"}],"outputs":[{"name":"","type":"uint256","internalType":"uint256"}],"stateMutability":"nonpayable"},{"type":"function","name":"castVoteWithReasonAndParamsBySig","inputs":[{"name":"proposalId","type":"uint256","internalType":"uint256"},{"name":"support","type":"uint8","internalType":"uint8"},{"name":"voter","type":"address","internalType":"address"},{"name":"reason","type":"string","internalType":"string"},{"name":"params","type":"bytes","internalType":"bytes"},{"name":"signature","type":"bytes","internalType":"bytes"}],"outputs":[{"name":"","type":"uint256","internalType":"uint256"}],"stateMutability":"nonpayable"},{"type":"function","name":"clock","inputs":[],"outputs":[{"name":"","type":"uint48","internalType":"uint48"}],"stateMutability":"view"},{"type":"function","name":"eip712Domain","inputs":[],"outputs":[{"name":"fields","type":"bytes1","internalType":"bytes1"},{"name":"name","type":"string","internalType":"string"},{"name":"version","type":"string","internalType":"string"},{"name":"chainId","type":"uint256","internalType":"uint256"},{"name":"verifyingContract","type":"address","internalType":"address"},{"name":"salt","type":"bytes32","internalType":"bytes32"},{"name":"extensions","type":"uint256[]","internalType":"uint256[]"}],"stateMutability":"view"},{"type":"function","name":"execute","inputs":[{"name":"targets","type":"address[]","internalType":"address[]"},{"name":"values","type":"uint256[]","internalType":"uint256[]"},{"name":"calldatas","type":"bytes[]","internalType":"bytes[]"},{"name":"descriptionHash","type":"bytes32","internalType":"bytes32"}],"outputs":[{"name":"","type":"uint256","internalType":"uint256"}],"stateMutability":"payable"},{"type":"function","name":"getProposalId","inputs":[{"name":"targets","type":"address[]","internalType":"address[]"},{"name":"values","type":"uint256[]","internalType":"uint256[]"},{"name":"calldatas","type":"bytes[]","internalType":"bytes[]"},{"name":"descriptionHash","type":"bytes32","internalType":"bytes32"}],"outputs":[{"name":"","type":"uint256","internalType":"uint256"}],"stateMutability":"view"},{"type":"function","name":"getVotes","inputs":[{"name":"account","type":"address","internalType":"address"},{"name":"timepoint","type":"uint256","internalType":"uint256"}],"outputs":[{"name":"","type":"uint256","internalType":"uint256"}],"stateMutability":"view"},{"type":"function","name":"getVotesWithParams","inputs":[{"name":"account","type":"address","internalType":"address"},{"name":"timepoint","type":"uint256","internalType":"uint256"},{"name":"params","type":"bytes","internalType":"bytes"}],"outputs":[{"name":"","type":"uint256","internalType":"uint256"}],"stateMutability":"view"},{"type":"function","name":"hasVoted","inputs":[{"name":"proposalId","type":"uint256","internalType":"uint256"},{"name":"account","type":"address","internalType":"address"}],"outputs":[{"name":"","type":"bool","internalType":"bool"}],"stateMutability":"view"},{"type":"function","name":"hashProposal","inputs":[{"name":"targets","type":"address[]","internalType":"address[]"},{"name":"values","type":"uint256[]","internalType":"uint256[]"},{"name":"calldatas","type":"bytes[]","internalType":"bytes[]"},{"name":"descriptionHash","type":"bytes32","internalType":"bytes32"}],"outputs":[{"name":"","type":"uint256","internalType":"uint256"}],"stateMutability":"pure"},{"type":"function","name":"name","inputs":[],"outputs":[{"name":"","type":"string","internalType":"string"}],"stateMutability":"view"},{"type":"function","name":"nonces","inputs":[{"name":"owner","type":"address","internalType":"address"}],"outputs":[{"name":"","type":"uint256","internalType":"uint256"}],"stateMutability":"view"},{"type":"function","name":"onERC1155BatchReceived","inputs":[{"name":"","type":"address","internalType":"address"},{"name":"","type":"address","internalType":"address"},{"name":"","type":"uint256[]","internalType":"uint256[]"},{"name":"","type":"uint256[]","internalType":"uint256[]"},{"name":"","type":"bytes","internalType":"bytes"}],"outputs":[{"name":"","type":"bytes4","internalType":"bytes4"}],"stateMutability":"nonpayable"},{"type":"function","name":"onERC1155Received","inputs":[{"name":"","type":"address","internalType":"address"},{"name":"","type":"address","internalType":"address"},{"name":"","type":"uint256","internalType":"uint256"},{"name":"","type":"uint256","internalType":"uint256"},{"name":"","type":"bytes","internalType":"bytes"}],"outputs":[{"name":"","type":"bytes4","internalType":"bytes4"}],"stateMutability":"nonpayable"},{"type":"function","name":"onERC721Received","inputs":[{"name":"","type":"address","internalType":"address"},{"name":"","type":"address","internalType":"address"},{"name":"","type":"uint256","internalType":"uint256"},{"name":"","type":"bytes","internalType":"bytes"}],"outputs":[{"name":"","type":"bytes4","internalType":"bytes4"}],"stateMutability":"nonpayable"},{"type":"function","name":"proposalDeadline","inputs":[{"name":"proposalId","type":"uint256","internalType":"uint256"}],"outputs":[{"name":"","type":"uint256","internalType":"uint256"}],"stateMutability":"view"},{"type":"function","name":"proposalEta","inputs":[{"name":"proposalId","type":"uint256","internalType":"uint256"}],"outputs":[{"name":"","type":"uint256","internalType":"uint256"}],"stateMutability":"view"},{"type":"function","name":"proposalNeedsQueuing","inputs":[{"name":"","type":"uint256","internalType":"uint256"}],"outputs":[{"name":"","type":"bool","internalType":"bool"}],"stateMutability":"view"},{"type":"function","name":"proposalProposer","inputs":[{"name":"proposalId","type":"uint256","internalType":"uint256"}],"outputs":[{"name":"","type":"address","internalType":"address"}],"stateMutability":"view"},{"type":"function","name":"proposalSnapshot","inputs":[{"name":"proposalId","type":"uint256","internalType":"uint256"}],"outputs":[{"name":"","type":"uint256","internalType":"uint256"}],"stateMutability":"view"},{"type":"function","name":"proposalThreshold","inputs":[],"outputs":[{"name":"","type":"uint256","internalType":"uint256"}],"stateMutability":"view"},{"type":"function","name":"proposalVotes","inputs":[{"name":"proposalId","type":"uint256","internalType":"uint256"}],"outputs":[{"name":"againstVotes","type":"uint256","internalType":"uint256"},{"name":"forVotes","type":"uint256","internalType":"uint256"},{"name":"abstainVotes","type":"uint256","internalType":"uint256"}],"stateMutability":"view"},{"type":"function","name":"propose","inputs":[{"name":"targets","type":"address[]","internalType":"address[]"},{"name":"values","type":"uint256[]","internalType":"uint256[]"},{"name":"calldatas","type":"bytes[]","internalType":"bytes[]"},{"name":"description","type":"string","internalType":"string"}],"outputs":[{"name":"","type":"uint256","internalType":"uint256"}],"stateMutability":"nonpayable"},{"type":"function","name":"queue","inputs":[{"name":"targets","type":"address[]","internalType":"address[]"},{"name":"values","type":"uint256[]","internalType":"uint256[]"},{"name":"calldatas","type":"bytes[]","internalType":"bytes[]"},{"name":"descriptionHash","type":"bytes32","internalType":"bytes32"}],"outputs":[{"name":"","type":"uint256","internalType":"uint256"}],"stateMutability":"nonpayable"},{"type":"function","name":"quorum","inputs":[{"name":"timepoint","type":"uint256","internalType":"uint256"}],"outputs":[{"name":"","type":"uint256","internalType":"uint256"}],"stateMutability":"view"},{"type":"function","name":"quorumDenominator","inputs":[],"outputs":[{"name":"","type":"uint256","internalType":"uint256"}],"stateMutability":"view"},{"type":"function","name":"quorumNumerator","inputs":[{"name":"timepoint","type":"uint256","internalType":"uint256"}],"outputs":[{"name":"","type":"uint256","internalType":"uint256"}],"stateMutability":"view"},{"type":"function","name":"quorumNumerator","inputs":[],"outputs":[{"name":"","type":"uint256","internalType":"uint256"}],"stateMutability":"view"},{"type":"function","name":"relay","inputs":[{"name":"target","type":"address","internalType":"address"},{"name":"value","type":"uint256","internalType":"uint256"},{"name":"data","type":"bytes","internalType":"bytes"}],"outputs":[],"stateMutability":"payable"},{"type":"function","name":"setProposalThreshold","inputs":[{"name":"newProposalThreshold","type":"uint256","internalType":"uint256"}],"outputs":[],"stateMutability":"nonpayable"},{"type":"function","name":"setVotingDelay","inputs":[{"name":"newVotingDelay","type":"uint48","internalType":"uint48"}],"outputs":[],"stateMutability":"nonpayable"},{"type":"function","name":"setVotingPeriod","inputs":[{"name":"newVotingPeriod","type":"uint32","internalType":"uint32"}],"outputs":[],"stateMutability":"nonpayable"},{"type":"function","name":"state","inputs":[{"name":"proposalId","type":"uint256","internalType":"uint256"}],"outputs":[{"name":"","type":"uint8","internalType":"enum IGovernor.ProposalState"}],"stateMutability":"view"},{"type":"function","name":"supportsInterface","inputs":[{"name":"interfaceId","type":"bytes4","internalType":"bytes4"}],"outputs":[{"name":"","type":"bool","internalType":"bool"}],"stateMutability":"view"},{"type":"function","name":"token","inputs":[],"outputs":[{"name":"","type":"address","internalType":"contract IERC5805"}],"stateMutability":"view"},{"type":"function","name":"updateQuorumNumerator","inputs":[{"name":"newQuorumNumerator","type":"uint256","internalType":"uint256"}],"outputs":[],"stateMutability":"nonpayable"},{"type":"function","name":"version","inputs":[],"outputs":[{"name":"","type":"string","internalType":"string"}],"stateMutability":"view"},{"type":"function","name":"votingDelay","inputs":[],"outputs":[{"name":"","type":"uint256","internalType":"uint256"}],"stateMutability":"view"},{"type":"function","name":"votingPeriod","inputs":[],"outputs":[{"name":"","type":"uint256","internalType":"uint256"}],"stateMutability":"view"},{"type":"event","name":"EIP712DomainChanged","inputs":[],"anonymous":false},{"type":"event","name":"ProposalCanceled","inputs":[{"name":"proposalId","type":"uint256","indexed":false,"internalType":"uint256"}],"anonymous":false},{"type":"event","name":"ProposalCreated","inputs":[{"name":"proposalId","type":"uint256","indexed":false,"internalType":"uint256"},{"name":"proposer","type":"address","indexed":false,"internalType":"address"},{"name":"targets","type":"address[]","indexed":false,"internalType":"address[]"},{"name":"values","type":"uint256[]","indexed":false,"internalType":"uint256[]"},{"name":"signatures","type":"string[]","indexed":false,"internalType":"string[]"},{"name":"calldatas","type":"bytes[]","indexed":false,"internalType":"bytes[]"},{"name":"voteStart","type":"uint256","indexed":false,"internalType":"uint256"},{"name":"voteEnd","type":"uint256","indexed":false,"internalType":"uint256"},{"name":"description","type":"string","indexed":false,"internalType":"string"}],"anonymous":false},{"type":"event","name":"ProposalExecuted","inputs":[{"name":"proposalId","type":"uint256","indexed":false,"internalType":"uint256"}],"anonymous":false},{"type":"event","name":"ProposalQueued","inputs":[{"name":"proposalId","type":"uint256","indexed":false,"internalType":"uint256"},{"name":"etaSeconds","type":"uint256","indexed":false,"internalType":"uint256"}],"anonymous":false},{"type":"event","name":"ProposalThresholdSet","inputs":[{"name":"oldProposalThreshold","type":"uint256","indexed":false,"internalType":"uint256"},{"name":"newProposalThreshold","type":"uint256","indexed":false,"internalType":"uint256"}],"anonymous":false},{"type":"event","name":"QuorumNumeratorUpdated","inputs":[{"name":"oldQuorumNumerator","type":"uint256","indexed":false,"internalType":"uint256"},{"name":"newQuorumNumerator","type":"uint256","indexed":false,"internalType":"uint256"}],"anonymous":false},{"type":"event","name":"VoteCast","inputs":[{"name":"voter","type":"address","indexed":true,"internalType":"address"},{"name":"proposalId","type":"uint256","indexed":false,"internalType":"uint256"},{"name":"support","type":"uint8","indexed":false,"internalType":"uint8"},{"name":"weight","type":"uint256","indexed":false,"internalType":"uint256"},{"name":"reason","type":"string","indexed":false,"internalType":"string"}],"anonymous":false},{"type":"event","name":"VoteCastWithParams","inputs":[{"name":"voter","type":"address","indexed":true,"internalType":"address"},{"name":"proposalId","type":"uint256","indexed":false,"internalType":"uint256"},{"name":"support","type":"uint8","indexed":false,"internalType":"uint8"},{"name":"weight","type":"uint256","indexed":false,"internalType":"uint256"},{"name":"reason","type":"string","indexed":false,"internalType":"string"},{"name":"params","type":"bytes","indexed":false,"internalType":"bytes"}],"anonymous":false},{"type":"event","name":"VotingDelaySet","inputs":[{"name":"oldVotingDelay","type":"uint256","indexed":false,"internalType":"uint256"},{"name":"newVotingDelay","type":"uint256","indexed":false,"internalType":"uint256"}],"anonymous":false},{"type":"event","name":"VotingPeriodSet","inputs":[{"name":"oldVotingPeriod","type":"uint256","indexed":false,"internalType":"uint256"},{"name":"newVotingPeriod","type":"uint256","indexed":false,"internalType":"uint256"}],"anonymous":false},{"type":"error","name":"CheckpointUnorderedInsertion","inputs":[]},{"type":"error","name":"FailedCall","inputs":[]},{"type":"error","name":"GovernorAlreadyCastVote","inputs":[{"name":"voter","type":"address","internalType":"address"}]},{"type":"error","name":"GovernorAlreadyQueuedProposal","inputs":[{"name":"proposalId","type":"uint256","internalType":"uint256"}]},{"type":"error","name":"GovernorDisabledDeposit","inputs":[]},{"type":"error","name":"GovernorInsufficientProposerVotes","inputs":[{"name":"proposer","type":"address","internalType":"address"},{"name":"votes","type":"uint256","internalType":"uint256"},{"name":"threshold","type":"uint256","internalType":"uint256"}]},{"type":"error","name":"GovernorInvalidProposalLength","inputs":[{"name":"targets","type":"uint256","internalType":"uint256"},{"name":"calldatas","type":"uint256","internalType":"uint256"},{"name":"values","type":"uint256","internalType":"uint256"}]},{"type":"error","name":"GovernorInvalidQuorumFraction","inputs":[{"name":"quorumNumerator","type":"uint256","internalType":"uint256"},{"name":"quorumDenominator","type":"uint256","internalType":"uint256"}]},{"type":"error","name":"GovernorInvalidSignature","inputs":[{"name":"voter","type":"address","internalType":"address"}]},{"type":"error","name":"GovernorInvalidVoteParams","inputs":[]},{"type":"error","name":"GovernorInvalidVoteType","inputs":[]},{"type":"error","name":"GovernorInvalidVotingPeriod","inputs":[{"name":"votingPeriod","type":"uint256","internalType":"uint256"}]},{"type":"error","name":"GovernorNonexistentProposal","inputs":[{"name":"proposalId","type":"uint256","internalType":"uint256"}]},{"type":"error","name":"GovernorNotQueuedProposal","inputs":[{"name":"proposalId","type":"uint256","internalType":"uint256"}]},{"type":"error","name":"GovernorOnlyExecutor","inputs":[{"name":"account","type":"address","internalType":"address"}]},{"type":"error","name":"GovernorQueueNotImplemented","inputs":[]},{"type":"error","name":"GovernorRestrictedProposer","inputs":[{"name":"proposer","type":"address","internalType":"address"}]},{"type":"error","name":"GovernorUnableToCancel","inputs":[{"name":"proposalId","type":"uint256","internalType":"uint256"},{"name":"account","type":"address","internalType":"address"}]},{"type":"error","name":"GovernorUnexpectedProposalState","inputs":[{"name":"proposalId","type":"uint256","internalType":"uint256"},{"name":"current","type":"uint8","internalType":"enum IGovernor.ProposalState"},{"name":"expectedStates","type":"bytes32","internalType":"bytes32"}]},{"type":"error","name":"InvalidAccountNonce","inputs":[{"name":"account","type":"address","internalType":"address"},{"name":"currentNonce","type":"uint256","internalType":"uint256"}]},{"type":"error","name":"InvalidShortString","inputs":[]},{"type":"error","name":"SafeCastOverflowedUintDowncast","inputs":[{"name":"bits","type":"uint8","internalType":"uint8"},{"name":"value","type":"uint256","internalType":"uint256"}]},{"type":"error","name":"StringTooLong","inputs":[{"name":"str","type":"string","internalType":"string"}]}],"bytecode":{"object":"0x610180604052346100a65761001a6100156100f7565b610159565b604051613e6990816109cb8239608051816138be015260a05181613975015260c0518161388f015260e0518161390d01526101005181613933015261012051816113b6015261014051816113e20152610160518181816116c601528181611b2e01528181611c7e01528181611fa80152818161228901528181612390015281816125dd0152612a380152f35b5f80fd5b634e487b7160e01b5f52604160045260245ffd5b601f909101601f19168101906001600160401b038211908210176100e157604052565b6100aa565b604051906100f56040836100be565b565b6148346020813803918260405193849261011182856100be565b8339810103126100a657516001600160a01b03811681036100a65790565b6040519061013e6040836100be565b60108252565b604051906101536040836100be565b60018252565b61022261016461012f565b602081016f2ab734bb32b939b2a3b7bb32b93737b960811b8152610186610144565b906020820190603160f81b825261019c8461054f565b610120526101a98361063f565b6101405283519020918260e05251902080610100524660a0526040519060208201927f8b73c3c69bb8fe3d512ecc4cf759cc79239f7b179b0ffacaa9a75d522b39400f8452604083015260608201524660808201523060a082015260a0815261021360c0826100be565b5190206080523060c0526102d6565b61022a610468565b6102326104b0565b61023a610506565b6001600160a01b0316610160526100f56103bb565b90600182811c9216801561027d575b602083101461026957565b634e487b7160e01b5f52602260045260245ffd5b91607f169161025e565b601f821161029457505050565b5f5260205f20906020601f840160051c830193106102cc575b601f0160051c01905b8181106102c1575050565b5f81556001016102b6565b90915081906102ad565b80519091906001600160401b0381116100e1576102ff816102f860035461024f565b6003610287565b602092601f821160011461033f5761032f929382915f92610334575b50508160011b915f199060031b1c19161790565b600355565b015190505f8061031b565b60035f52601f198216937fc2575a0e9e593c00f959f8c92f12db2869c3395a3b0502d05e2516446f71f85b915f5b8681106103a3575083600195961061038b575b505050811b01600355565b01515f1960f88460031b161c191690555f8080610380565b9192602060018192868501518155019401920161036d565b600a548061041b57505f5b6001600160d01b03166103d7610731565b7f0553476bf02ef2726e8ce5ced78d63e26e602e4a2257b1f559418e24b463399791600a91610407908390610892565b5050604080519182526020820192909252a1565b805f1981011161045457600a5f527fc65a7bb8d6351c1cf70c95a316cc6a92839c986682d98bc35f958f4883f9d2a7015460301c6103c6565b634e487b7160e01b5f52601160045260245ffd5b6008547fc565b045403dc03c2eea82b81a0465edad9e2e7fc4d97e11421c209da93d7a936040805165ffffffffffff841681525f6020820152a165ffffffffffff1916600855565b67012c0000000000006008547f7e3f7f0708a84de9203036abaa450dccc85ad5ff52f78c170f3edb55cf5e88286040805163ffffffff8460301c16815261012c6020820152a163ffffffff60301b191617600855565b60075460408051918252670de0b6b3a764000060208301527fccb45da8d5717e6c4544694297c4ba5cf151d455c9bb0ed4fc7a38411bc0546191a1670de0b6b3a7640000600755565b908151602081105f1461056a575090610567906107b2565b90565b6001600160401b0381116100e15761058c816105865f5461024f565b5f610287565b602092601f82116001146105c2576105bb929382915f926103345750508160011b915f199060031b1c19161790565b5f5560ff90565b5f8052601f198216937f290decd9548b62a8d60345a988386fc84ba6bc95484008f6362f93160ef3e563915f5b868110610627575083600195961061060f575b505050811b015f5560ff90565b01515f1960f88460031b161c191690555f8080610602565b919260206001819286850151815501940192016105ef565b908151602081105f14610657575090610567906107b2565b6001600160401b0381116100e15761067b8161067460015461024f565b6001610287565b602092601f82116001146106b2576106aa929382915f926103345750508160011b915f199060031b1c19161790565b60015560ff90565b60015f52601f198216937fb10e2d527612073b26eecdfd717e6a320cf44b4afac2b0732d9fcbe2b7fa0cf6915f5b8681106107195750836001959610610701575b505050811b0160015560ff90565b01515f1960f88460031b161c191690555f80806106f3565b919260206001819286850151815501940192016106e0565b610160516040516324776b7d60e21b815290602090829060049082906001600160a01b03165afa5f918161076f575b5061056757506105674361099b565b9091506020813d6020116107aa575b8161078b602093836100be565b810103126100a6575165ffffffffffff811681036100a657905f610760565b3d915061077e565b601f8151116107dd5760208151910151602082106107ce571790565b5f198260200360031b1b161790565b604460209160405192839163305a27a960e01b83528160048401528051918291826024860152018484015e5f828201840152601f01601f19168101030190fd5b5f1981019190821161045457565b908154680100000000000000008110156100e1576001810180845581101561087e575f9283526020928390208251929093015160301b65ffffffffffff191665ffffffffffff9290921691909117910155565b634e487b7160e01b5f52603260045260245ffd5b600a549192918015610972576108aa6108d39161081d565b600a5f527fc65a7bb8d6351c1cf70c95a316cc6a92839c986682d98bc35f958f4883f9d2a80190565b9081546108ef6108e88265ffffffffffff1690565b9160301c90565b9265ffffffffffff8084169216918083116109635786920361092d5761092992509065ffffffffffff82549181199060301b169116179055565b9190565b50506109299061094c61093e6100e6565b65ffffffffffff9092168252565b6001600160d01b03851660208201525b600a61082b565b632520601d60e01b5f5260045ffd5b506109969061098261093e6100e6565b6001600160d01b038416602082015261095c565b5f9190565b65ffffffffffff81116109b35765ffffffffffff1690565b6306dfcc6560e41b5f52603060045260245260445ffdfe6080604052600436101561001a575b3615610018575f80fd5b005b5f3560e01c806301ffc9a71461030457806302a251a3146102ff57806306f3f9e6146102fa57806306fdde03146102f5578063143489d0146102f0578063150b7a02146102eb578063160cbed7146102e65780632656227d146102e15780632d63f693146102dc5780632fe3e261146102d75780633932abb1146102d25780633e4f49e6146102cd57806343859632146102c8578063452115d6146102c35780634bf5d7e9146102be578063544ffc9c146102b957806354fd4d50146102b457806356781388146102af5780635b8d0e0d146102aa5780635f398a14146102a557806360c4247f146102a0578063790518871461029b5780637b3c71d3146102965780637d5e81e2146102915780637ecebe001461028c57806384b0196e146102875780638ff262e31461028257806391ddadf41461027d57806397c3d334146102785780639a802a6d14610273578063a7713a701461026e578063a8f8a6681461024b578063a9a9529414610269578063ab58fb8e14610264578063b58131b01461025f578063bc197c811461025a578063c01f9e3714610255578063c28bc2fa14610250578063c59057e41461024b578063dd4e2ba514610246578063deaaa7cc14610241578063e540d01d1461023c578063eb9019d414610237578063ece40cc114610232578063f23a6e611461022d578063f8ce560a146102285763fc0c546a0361000e57611c52565b611c34565b611bc6565b611b71565b611a9e565b6119ca565b611990565b611931565b61177c565b6118c9565b6118ab565b6117fa565b6117dd565b6117aa565b61178f565b61173e565b611625565b61160a565b6115e0565b61148a565b61139e565b611326565b611274565b61121e565b611193565b611165565b6110e3565b61103e565b610fcf565b610f60565b610f1f565b610ef0565b610daa565b610d4a565b610d1b565b610cb6565b610c7c565b610c47565b610aa8565b610a5d565b61080e565b610692565b61059a565b610431565b61040b565b34610407576020600319360112610407576004357fffffffff000000000000000000000000000000000000000000000000000000008116809103610407577fcdbdfcee0000000000000000000000000000000000000000000000000000000081149081156103dd575b81156103b3575b8115610389575b506040519015158152602090f35b7f01ffc9a7000000000000000000000000000000000000000000000000000000009150145f61037b565b7f4e2312e00000000000000000000000000000000000000000000000000000000081149150610374565b7f65455a86000000000000000000000000000000000000000000000000000000008114915061036d565b5f80fd5b34610407575f60031936011261040757602063ffffffff60085460301c16604051908152f35b346104075760206003193601126104075760043561044d612646565b606481116105315779ffffffffffffffffffffffffffffffffffffffffffffffffffff6104786130a2565b169061048261234d565b9179ffffffffffffffffffffffffffffffffffffffffffffffffffff8211610500576104ec7f0553476bf02ef2726e8ce5ced78d63e26e602e4a2257b1f559418e24b46339979379ffffffffffffffffffffffffffffffffffffffffffffffffffff84169061373b565b5050604080519182526020820192909252a1005b507f6dfcc650000000000000000000000000000000000000000000000000000000005f5260d060045260245260445ffd5b7f243e5445000000000000000000000000000000000000000000000000000000005f52600452606460245260445ffd5b90601f19601f602080948051918291828752018686015e5f8582860101520116010190565b906020610597928181520190610561565b90565b34610407575f600319360112610407576040515f6003546105ba81611ca2565b808452906001811690811561065057506001146105f2575b6105ee836105e281850382610768565b60405191829182610586565b0390f35b60035f9081527fc2575a0e9e593c00f959f8c92f12db2869c3395a3b0502d05e2516446f71f85b939250905b808210610636575090915081016020016105e26105d2565b91926001816020925483858801015201910190929161061e565b7fffffffffffffffffffffffffffffffffffffffffffffffffffffffffffffff001660208086019190915291151560051b840190910191506105e290506105d2565b34610407576020600319360112610407576004355f526004602052602073ffffffffffffffffffffffffffffffffffffffff60405f205416604051908152f35b6004359073ffffffffffffffffffffffffffffffffffffffff8216820361040757565b6024359073ffffffffffffffffffffffffffffffffffffffff8216820361040757565b6044359073ffffffffffffffffffffffffffffffffffffffff8216820361040757565b7f4e487b71000000000000000000000000000000000000000000000000000000005f52604160045260245ffd5b90601f601f19910116810190811067ffffffffffffffff82111761078b57604052565b61073b565b6040519061079f604083610768565b565b67ffffffffffffffff811161078b57601f01601f191660200190565b9291926107c9826107a1565b916107d76040519384610768565b829481845281830111610407578281602093845f960137010152565b9080601f8301121561040757816020610597933591016107bd565b34610407576080600319360112610407576108276106d2565b506108306106f5565b5060643567ffffffffffffffff8111610407576108519036906004016107f3565b5060206040517f150b7a02000000000000000000000000000000000000000000000000000000008152f35b67ffffffffffffffff811161078b5760051b60200190565b9080601f83011215610407578135906108ac8261087c565b926108ba6040519485610768565b82845260208085019360051b82010191821161040757602001915b8183106108e25750505090565b823573ffffffffffffffffffffffffffffffffffffffff81168103610407578152602092830192016108d5565b9080601f830112156104075781356109268161087c565b926109346040519485610768565b81845260208085019260051b82010192831161040757602001905b82821061095c5750505090565b813581526020918201910161094f565b9080601f830112156104075781356109838161087c565b926109916040519485610768565b81845260208085019260051b820101918383116104075760208201905b8382106109bd57505050505090565b813567ffffffffffffffff8111610407576020916109e0878480948801016107f3565b8152019101906109ae565b60806003198201126104075760043567ffffffffffffffff81116104075781610a1691600401610894565b9160243567ffffffffffffffff81116104075782610a369160040161090f565b916044359067ffffffffffffffff821161040757610a569160040161096c565b9060643590565b3461040757610a7f610a7a610a71366109eb565b9291909161251d565b6126a7565b507f90884a46000000000000000000000000000000000000000000000000000000005f5260045ffd5b610ac0610ab4366109eb565b8183859496939561251d565b91602091610acf603085612759565b50610b2e610ae5855f52600460205260405f2090565b7e010000000000000000000000000000000000000000000000000000000000007fff00ffffffffffffffffffffffffffffffffffffffffffffffffffffffffffff825416179055565b5f925b50906105ee94610b4092612837565b80610b90575b610b87575b6040518181527f712ae1383f79ac853f8d882153778e0260ef8f03b504e2866e0593e04d2b291f90602090a16040519081529081906020820190565b5f600555610b4b565b50610bb9610bb56005546fffffffffffffffffffffffffffffffff81169060801c1490565b1590565b610b46565b8351811015610c385760019030610c0e610bf5610bdb8489611dc0565b5173ffffffffffffffffffffffffffffffffffffffff1690565b73ffffffffffffffffffffffffffffffffffffffff1690565b14610c1a575b01610bbe565b610c33610c278288611dc0565b518981519101206127b0565b610c14565b509394509291906105ee610b31565b34610407576020600319360112610407576004355f526004602052602065ffffffffffff60405f205460a01c16604051908152f35b34610407575f6003193601126104075760206040517f3e83946653575f9a39005e1545185629e92736b7528ab20ca3816f315424a8118152f35b34610407575f60031936011261040757602065ffffffffffff60085416604051908152f35b7f4e487b71000000000000000000000000000000000000000000000000000000005f52602160045260245ffd5b6008811015610d1657602452565b610cdb565b3461040757602060031936011261040757610d37600435611dd9565b6040516008821015610d16576020918152f35b3461040757604060031936011261040757602060ff610d9e600435610d6d6106f5565b905f5260098452600360405f20019073ffffffffffffffffffffffffffffffffffffffff165f5260205260405f2090565b54166040519015158152f35b3461040757610db8366109eb565b92610dc88483858496959661251d565b610dd181611dd9565b6008811015610d16571580610ec5575b15610e96576105ee610df58686868661251d565b610e00603b82612759565b50610e13815f52600460205260405f2090565b80547effffffffffffffffffffffffffffffffffffffffffffffffffffffffffffff167f01000000000000000000000000000000000000000000000000000000000000001790556040518181527f789cf55be980739dad1d0699b93b58e806b51c9d96619bfa8fe0a28abaa7b30c90602090a16040519081529081906020820190565b7f8fe5d8a9000000000000000000000000000000000000000000000000000000005f526004523360245260445ffd5b50805f52600460205273ffffffffffffffffffffffffffffffffffffffff60405f2054163314610de1565b34610407575f600319360112610407576105ee610f0b611f66565b604051918291602083526020830190610561565b34610407576020600319360112610407576004355f526009602052606060405f20805490600260018201549101549060405192835260208301526040820152f35b34610407575f600319360112610407576105ee604051610f81604082610768565b600181527f31000000000000000000000000000000000000000000000000000000000000006020820152604051918291602083526020830190610561565b6024359060ff8216820361040757565b34610407576040600319360112610407576020611008600435610ff0610fbf565b60405191610ffe8584610768565b5f8352339061291f565b604051908152f35b9181601f840112156104075782359167ffffffffffffffff8311610407576020838186019501011161040757565b346104075760c06003193601126104075760043561105a610fbf565b90611063610718565b9060643567ffffffffffffffff811161040757611084903690600401611010565b60843567ffffffffffffffff8111610407576110a49036906004016107f3565b9160a4359467ffffffffffffffff8611610407576105ee966110cd6110d39736906004016107f3565b9561205c565b6040519081529081906020820190565b34610407576080600319360112610407576004356110ff610fbf565b9060443567ffffffffffffffff811161040757611120903690600401611010565b91909260643567ffffffffffffffff81116104075761115a9461114a6111529236906004016107f3565b9436916107bd565b91339061299c565b604051908152602090f35b34610407576020600319360112610407576020611008600435612b0c565b65ffffffffffff81160361040757565b34610407576020600319360112610407576004356111b081611183565b6111b8612646565b7fffffffffffffffffffffffffffffffffffffffffffffffffffff0000000000006008547fc565b045403dc03c2eea82b81a0465edad9e2e7fc4d97e11421c209da93d7a93604065ffffffffffff81519581851687521694856020820152a11617600855005b346104075760606003193601126104075760043561123a610fbf565b906044359067ffffffffffffffff82116104075760209261126c611265611008943690600401611010565b36916107bd565b91339061291f565b346104075760806003193601126104075760043567ffffffffffffffff8111610407576112a5903690600401610894565b60243567ffffffffffffffff8111610407576112c590369060040161090f565b9060443567ffffffffffffffff8111610407576112e690369060040161096c565b906064359167ffffffffffffffff83116104075736602384011215610407576105ee936113206110d39436906024816004013591016107bd565b926121c0565b346104075760206003193601126104075773ffffffffffffffffffffffffffffffffffffffff6113546106d2565b165f526002602052602060405f2054604051908152f35b90602080835192838152019201905f5b8181106113885750505090565b825184526020938401939092019160010161137b565b34610407575f6003193601126104075761145c6113da7f0000000000000000000000000000000000000000000000000000000000000000613620565b6105ee6114067f0000000000000000000000000000000000000000000000000000000000000000613698565b61146a60405191611418602084610768565b5f8084523660208501376040519586957f0f00000000000000000000000000000000000000000000000000000000000000875260e0602088015260e0870190610561565b908582036040870152610561565b904660608501523060808501525f60a085015283820360c085015261136b565b34610407576080600319360112610407576004356114a6610fbf565b906114af610718565b9160643567ffffffffffffffff811161040757610bb56114d66115829236906004016107f3565b61157c61150a8773ffffffffffffffffffffffffffffffffffffffff165f52600260205260405f2080549060018201905590565b60405160208101917ff2aad550cf55f045cb27e9c559f9889fdfb6e6cdaa032301d6ea397784ae51d7835288604083015260ff8816606083015273ffffffffffffffffffffffffffffffffffffffff8a16608083015260a082015260a0815261157460c082610768565b5190206131d8565b86613223565b61159d57906110d3916105ee93611597611f17565b9261291f565b7f94ab6c07000000000000000000000000000000000000000000000000000000005f5273ffffffffffffffffffffffffffffffffffffffff831660045260245b5ffd5b34610407575f6003193601126104075760206115fa61234d565b65ffffffffffff60405191168152f35b34610407575f60031936011261040757602060405160648152f35b346104075760606003193601126104075761163e6106d2565b60243560443567ffffffffffffffff8111610407576116619036906004016107f3565b5073ffffffffffffffffffffffffffffffffffffffff604051927f3a46b1a8000000000000000000000000000000000000000000000000000000008452166004830152602482015260208160448173ffffffffffffffffffffffffffffffffffffffff7f0000000000000000000000000000000000000000000000000000000000000000165afa8015611739576105ee915f9161170a575b506040519081529081906020820190565b61172c915060203d602011611732575b6117248183610768565b810190612584565b5f6116f9565b503d61171a565b611f0c565b34610407575f60031936011261040757602079ffffffffffffffffffffffffffffffffffffffffffffffffffff6117736130a2565b16604051908152f35b34610407576020611008610a71366109eb565b346104075760206003193601126104075760206040515f8152f35b346104075760206003193601126104075760206110086004355f52600460205265ffffffffffff600160405f2001541690565b34610407575f600319360112610407576020600754604051908152f35b346104075760a0600319360112610407576118136106d2565b5061181c6106f5565b5060443567ffffffffffffffff81116104075761183d90369060040161090f565b5060643567ffffffffffffffff81116104075761185e90369060040161090f565b5060843567ffffffffffffffff81116104075761187f9036906004016107f3565b506040517fbc197c81000000000000000000000000000000000000000000000000000000008152602090f35b34610407576020600319360112610407576020611008600435612406565b6060600319360112610407576118dd6106d2565b60243560443567ffffffffffffffff811161040757610018925f9261190784933690600401611010565b9190611911612646565b826040519384928337810185815203925af161192b61244d565b906130e6565b34610407575f600319360112610407576105ee604051611952604082610768565b602081527f737570706f72743d627261766f2671756f72756d3d666f722c6162737461696e6020820152604051918291602083526020830190610561565b34610407575f6003193601126104075760206040517ff2aad550cf55f045cb27e9c559f9889fdfb6e6cdaa032301d6ea397784ae51d78152f35b346104075760206003193601126104075760043563ffffffff811690818103610407576119f5612646565b8115611a725769ffffffff0000000000007fffffffffffffffffffffffffffffffffffffffffffff00000000ffffffffffff917f7e3f7f0708a84de9203036abaa450dccc85ad5ff52f78c170f3edb55cf5e882860406008549581519063ffffffff8860301c1682526020820152a160301b169116176008555f80f35b7ff1cfbf05000000000000000000000000000000000000000000000000000000005f525f60045260245ffd5b3461040757604060031936011261040757611ab76106d2565b6024355f604051611ac9602082610768565b5273ffffffffffffffffffffffffffffffffffffffff604051927f3a46b1a8000000000000000000000000000000000000000000000000000000008452166004830152602482015260208160448173ffffffffffffffffffffffffffffffffffffffff7f0000000000000000000000000000000000000000000000000000000000000000165afa8015611739576105ee915f9161170a57506040519081529081906020820190565b3461040757602060031936011261040757600435611b8d612646565b60075460408051918252602082018390527fccb45da8d5717e6c4544694297c4ba5cf151d455c9bb0ed4fc7a38411bc0546191a1600755005b346104075760a060031936011261040757611bdf6106d2565b50611be86106f5565b5060843567ffffffffffffffff811161040757611c099036906004016107f3565b5060206040517ff23a6e61000000000000000000000000000000000000000000000000000000008152f35b34610407576020600319360112610407576020611008600435612593565b34610407575f60031936011261040757602060405173ffffffffffffffffffffffffffffffffffffffff7f0000000000000000000000000000000000000000000000000000000000000000168152f35b90600182811c92168015611ce9575b6020831014611cbc57565b7f4e487b71000000000000000000000000000000000000000000000000000000005f52602260045260245ffd5b91607f1691611cb1565b5f9291815491611d0283611ca2565b8083529260018116908115611d575750600114611d1e57505050565b5f9081526020812093945091925b838310611d3d575060209250010190565b600181602092949394548385870101520191019190611d2c565b905060209495507fffffffffffffffffffffffffffffffffffffffffffffffffffffffffffffff0091509291921683830152151560051b010190565b7f4e487b71000000000000000000000000000000000000000000000000000000005f52603260045260245ffd5b8051821015611dd45760209160051b010190565b611d93565b611deb815f52600460205260405f2090565b5460f881901c9060f01c60ff16611f0557611eff57611e32611e27611e18835f52600460205260405f2090565b5460a01c65ffffffffffff1690565b65ffffffffffff1690565b8015611ed257611e43611e2761234d565b80911015611ecc57611e5482612406565b10611e5f5750600190565b611e6b610bb5826128c0565b8015611ea9575b15611e7d5750600390565b611e9b905f52600460205265ffffffffffff600160405f2001541690565b611ea457600490565b600590565b50611ec7610bb5825f52600960205260405f20600181015490541090565b611e72565b50505f90565b7f6ad06075000000000000000000000000000000000000000000000000000000005f52600482905260245ffd5b50600290565b5050600790565b6040513d5f823e3d90fd5b60405190611f26602083610768565b5f8252565b60405190611f3a604083610768565b601d82527f6d6f64653d626c6f636b6e756d6265722666726f6d3d64656661756c740000006020830152565b6040517f4bf5d7e90000000000000000000000000000000000000000000000000000000081525f8160048173ffffffffffffffffffffffffffffffffffffffff7f0000000000000000000000000000000000000000000000000000000000000000165afa5f9181611fe0575b506105975750610597611f2b565b9091503d805f833e611ff28183610768565b8101906020818303126104075780519067ffffffffffffffff8211610407570181601f8201121561040757805190612029826107a1565b926120376040519485610768565b8284526020838301011161040757815f9260208093018386015e83010152905f611fd2565b939092919695610bb56121369161213087878c8b61207b368a8c6107bd565b73ffffffffffffffffffffffffffffffffffffffff6120c18473ffffffffffffffffffffffffffffffffffffffff165f52600260205260405f2080549060018201905590565b916020815191012092602081519101209360ff6040519660208801987f3e83946653575f9a39005e1545185629e92736b7528ab20ca3816f315424a8118a52604089015216606087015216608085015260a084015260c083015260e082015260e0815261157461010082610768565b8a613223565b6121515761059795969161214b9136916107bd565b9261299c565b7f94ab6c07000000000000000000000000000000000000000000000000000000005f5273ffffffffffffffffffffffffffffffffffffffff871660045260245ffd5b7f4e487b71000000000000000000000000000000000000000000000000000000005f52601160045260245ffd5b91939290936121cf8233612c2d565b156123215760075494856121eb575b6105979495503393612e2b565b5f1965ffffffffffff6121fc61234d565b160165ffffffffffff811161231c5765ffffffffffff16955f604051612223602082610768565b52604051967f3a46b1a800000000000000000000000000000000000000000000000000000000885273ffffffffffffffffffffffffffffffffffffffff33166004890152602488015260208760448173ffffffffffffffffffffffffffffffffffffffff7f0000000000000000000000000000000000000000000000000000000000000000165afa968715611739575f976122fb575b508087106122c757506121de565b7fc242ee16000000000000000000000000000000000000000000000000000000005f5233600452602487905260445260645ffd5b61231591975060203d602011611732576117248183610768565b955f6122b9565b612193565b7fd9b39557000000000000000000000000000000000000000000000000000000005f523360045260245ffd5b6040517f91ddadf400000000000000000000000000000000000000000000000000000000815260208160048173ffffffffffffffffffffffffffffffffffffffff7f0000000000000000000000000000000000000000000000000000000000000000165afa5f91816123c9575b50610597575061059743613499565b9091506020813d6020116123fe575b816123e560209383610768565b8101031261040757516123f781611183565b905f6123ba565b3d91506123d8565b805f52600460205265ffffffffffff60405f205460a01c16905f52600460205263ffffffff60405f205460d01c160165ffffffffffff811161231c5765ffffffffffff1690565b3d15612477573d9061245e826107a1565b9161246c6040519384610768565b82523d5f602084013e565b606090565b90602080835192838152019201905f5b8181106124995750505090565b825173ffffffffffffffffffffffffffffffffffffffff1684526020938401939092019160010161248c565b9080602083519182815201916020808360051b8301019401925f915b8383106124f057505050505090565b909192939460208061250e83601f1986600196030187528951610561565b970193019301919392906124e1565b929061257e9161256a61255894604051958694612546602087019960808b5260a088019061247c565b90601f1987830301604088015261136b565b90601f198583030160608601526124c5565b90608083015203601f198101835282610768565b51902090565b90816020910312610407575190565b604051907f8e539e8c00000000000000000000000000000000000000000000000000000000825280600483015260208260248173ffffffffffffffffffffffffffffffffffffffff7f0000000000000000000000000000000000000000000000000000000000000000165afa90811561173957610597925f92612621575b5061261b90612b0c565b9061315c565b61261b91925061263f9060203d602011611732576117248183610768565b9190612611565b33300361264f57565b7f47096e47000000000000000000000000000000000000000000000000000000005f523360045260245ffd5b6008811015610d165760ff600191161b90565b600452606491906008811015610d16576024525f604452565b6126b081611dd9565b9060106126bc8361267b565b16156126c6575090565b6126f692507f31b75e4d000000000000000000000000000000000000000000000000000000005f52600452610d08565b601060445260645ffd5b61270981611dd9565b9060026127158361267b565b161561271f575090565b61274f92507f31b75e4d000000000000000000000000000000000000000000000000000000005f52600452610d08565b600260445260645ffd5b9061276382611dd9565b918161276e8461267b565b161561277957505090565b7f31b75e4d000000000000000000000000000000000000000000000000000000005f526004526127a882610d08565b60445260645ffd5b600554908160801c6fffffffffffffffffffffffffffffffff80600183011693168314612825575f52600660205260405f20556fffffffffffffffffffffffffffffffff7fffffffffffffffffffffffffffffffff000000000000000000000000000000006005549260801b16911617600555565b634e487b715f5260416020526024601cfd5b9291925f5b815181101561289e57806128975f8073ffffffffffffffffffffffffffffffffffffffff61286c60019688611dc0565b51166128788589611dc0565b5190612884868c611dc0565b5191602083519301915af161192b61244d565b500161283c565b5050509050565b906001820180921161231c57565b9190820180921161231c57565b805f52600960205260405f20905f5260046020526128ec65ffffffffffff60405f205460a01c16612593565b60026001830154920154820180921161231c57111590565b905f19820191821161231c57565b9190820391821161231c57565b91610597939160405193612934602086610768565b5f855261299c565b93909260ff6129689361059797958752166020860152604085015260a0606085015260a0840190610561565b916080818403910152610561565b909260ff6080936105979695845216602083015260408201528160608201520190610561565b929190926129a981612700565b50805f52600460205265ffffffffffff6129d060405f2065ffffffffffff905460a01c1690565b16936040517f3a46b1a800000000000000000000000000000000000000000000000000000000815273ffffffffffffffffffffffffffffffffffffffff821695866004830152602482015260208160448173ffffffffffffffffffffffffffffffffffffffff7f0000000000000000000000000000000000000000000000000000000000000000165afa90811561173957612a759285915f93612aeb575b5084613309565b948051155f14612ab85750612ab27fb8e138887d0aa13bab447e82de9d5c1777041ecd21ca36ba824ff1e6c07ddda4938660405194859485612976565b0390a290565b612ab2907fe2babfbac5889a709b63bb7f598b324e08bc5a4fb9ec647fb3cbc9ec07eb871294876040519586958661293c565b612b0591935060203d602011611732576117248183610768565b915f612a6e565b65ffffffffffff9080612b1f600a61345f565b9491501611155f14612b4b575079ffffffffffffffffffffffffffffffffffffffffffffffffffff1690565b612b559150613499565b600a54905f829160058411612bd9575b612b719350600a613b4a565b80612b7b57505f90565b612bd5612bce612ba579ffffffffffffffffffffffffffffffffffffffffffffffffffff93612904565b600a5f527fc65a7bb8d6351c1cf70c95a316cc6a92839c986682d98bc35f958f4883f9d2a80190565b5460301c90565b1690565b9192612be4816139d5565b810390811161231c57612b7193600a5f5265ffffffffffff8260205f2001541665ffffffffffff8516105f14612c1b575091612b65565b929150612c27906128a5565b90612b65565b90805160348110612d01577f2370726f706f7365723d000000000000000000000000000000000000000000007fffffffffffffffffffff000000000000000000000000000000000000000000007fffffffffffffffffffffffffffffffffffffffffffffffffffffffffffffffec83850101511603612d0157612cd3917fffffffffffffffffffffffffffffffffffffffffffffffffffffffffffffffd682019061350d565b9015918215612ce157505090565b73ffffffffffffffffffffffffffffffffffffffff919250811691161490565b505050600190565b90612d138261087c565b612d206040519182610768565b828152601f19612d30829461087c565b01905f5b828110612d4057505050565b806060602080938501015201612d34565b95999896979493919273ffffffffffffffffffffffffffffffffffffffff612da094612d92938952166020880152610120604088015261012087019061247c565b90858203606087015261136b565b968388036080850152815180895260208901906020808260051b8c01019401915f905b828210612dff575050505061059796975090612de69184820360a08601526124c5565b9360c083015260e0820152610100818403910152610561565b90919294602080612e1d838f601f1990600196030186528951610561565b970192019201909291612dc3565b929094939194612e438251602084012087838761251d565b958451825190818114801590613097575b801561308f575b61305557505065ffffffffffff612e7d611e18895f52600460205260405f2090565b1661301f579161301a917f7d84a6263ae0d98d3329bd7b46bb4e8d6f98cd35a7adb45c274c8b7fd5ebd5e0959493612eb361234d565b90612ef7612eee612ee16008549465ffffffffffff612eda611e278865ffffffffffff1690565b91166128b3565b9360301c63ffffffff1690565b63ffffffff1690565b612ff8612f0c8c5f52600460205260405f2090565b80547fffffffffffffffffffffffff00000000000000000000000000000000000000001673ffffffffffffffffffffffffffffffffffffffff8a16178155612fa1612f5686613499565b82547fffffffffffff000000000000ffffffffffffffffffffffffffffffffffffffff1660a09190911b79ffffffffffff000000000000000000000000000000000000000016178255565b612faa836135dc565b7fffff00000000ffffffffffffffffffffffffffffffffffffffffffffffffffff7dffffffff000000000000000000000000000000000000000000000000000083549260d01b169116179055565b61300c6130058951612d09565b91846128b3565b936040519889988d8a612d51565b0390a1565b6115dd8761302c81611dd9565b907f31b75e4d000000000000000000000000000000000000000000000000000000005f5261268e565b6115dd9251907f447b05d0000000000000000000000000000000000000000000000000000000005f52929190606493600452602452604452565b508015612e5b565b508251811415612e54565b600a54806130af57505f90565b805f1981011161231c57600a5f527fc65a7bb8d6351c1cf70c95a316cc6a92839c986682d98bc35f958f4883f9d2a7015460301c90565b90919061079f57508051156130fd57602081519101fd5b7fd6bda275000000000000000000000000000000000000000000000000000000005f5260045ffd5b811561312f570490565b7f4e487b71000000000000000000000000000000000000000000000000000000005f52601260045260245ffd5b5f198282099082810291828082109103039081156131bd5781606411156131b6577f5c28f5c28f5c28f5c28f5c28f5c28f5c28f5c28f5c28f5c28f5c28f5c28f5c29936064910990828211900360fe1b910360021c170290565b60116131c8565b505060649004919050565b634e487b715f526020526024601cfd5b6042906131e3613878565b90604051917f19010000000000000000000000000000000000000000000000000000000000008352600283015260228201522090565b60041115610d1657565b9190823b61324b57906132359161399b565b5061323f81613219565b159182612ce157505090565b915f9261329a6132a8859460405192839160208301957f1626ba7e0000000000000000000000000000000000000000000000000000000087526024840152604060448401526064830190610561565b03601f198101835282610768565b51915afa6132b461244d565b816132fb575b816132c3575090565b905060208180518101031261040757602001517f1626ba7e000000000000000000000000000000000000000000000000000000001490565b9050602081511015906132ba565b61331e909291925f52600960205260405f2090565b916003830161335561334e83839073ffffffffffffffffffffffffffffffffffffffff165f5260205260405f2090565b5460ff1690565b61341d5761338760ff93926133b2929073ffffffffffffffffffffffffffffffffffffffff165f5260205260405f2090565b60017fffffffffffffffffffffffffffffffffffffffffffffffffffffffffffffff00825416179055565b16806133c957506133c48282546128b3565b905590565b600181036133e057506001016133c48282546128b3565b6002036133f5576002016133c48282546128b3565b7f06b337c2000000000000000000000000000000000000000000000000000000005f5260045ffd5b7f71c6af49000000000000000000000000000000000000000000000000000000005f5273ffffffffffffffffffffffffffffffffffffffff821660045260245ffd5b8054806134705750505f905f905f90565b805f1981011161231c575f19915f5260205f2001015460019165ffffffffffff82169160301c90565b65ffffffffffff81116134b15765ffffffffffff1690565b7f6dfcc650000000000000000000000000000000000000000000000000000000005f52603060045260245260445ffd5b908160011b918083046002149015171561231c57565b908160041b918083046010149015171561231c57565b8051831180156135d3575b61357957613525826128a5565b831180613582575b6135389015156134e1565b6028018060281161231c5761354d8385612912565b0361357957916135739173ffffffffffffffffffffffffffffffffffffffff9493613bae565b90921690565b5050505f905f90565b50808201602001517fffff000000000000000000000000000000000000000000000000000000000000167f30780000000000000000000000000000000000000000000000000000000000001461352d565b50828211613518565b63ffffffff81116135f05763ffffffff1690565b7f6dfcc650000000000000000000000000000000000000000000000000000000005f52602060045260245260445ffd5b60ff811461367f5760ff811690601f82116136575760405191613644604084610768565b6020808452838101919036833783525290565b7fb3512b0c000000000000000000000000000000000000000000000000000000005f5260045ffd5b5060405161059781613691815f611cf3565b0382610768565b60ff81146136bc5760ff811690601f82116136575760405191613644604084610768565b5060405161059781613691816001611cf3565b9081546801000000000000000081101561078b5760018101808455811015611dd4575f9283526020928390208251929093015160301b7fffffffffffffffffffffffffffffffffffffffffffffffffffff0000000000001665ffffffffffff9290921691909117910155565b600a54919291801561383c57612ba561375391612904565b90815461376f6137688265ffffffffffff1690565b9160301c90565b9265ffffffffffff808416921691808311613814578692036137cb576137c792509065ffffffffffff7fffffffffffffffffffffffffffffffffffffffffffffffffffff00000000000083549260301b169116179055565b9190565b50506137c7906137ea6137dc610790565b65ffffffffffff9092168252565b79ffffffffffffffffffffffffffffffffffffffffffffffffffff851660208201525b600a6136cf565b7f2520601d000000000000000000000000000000000000000000000000000000005f5260045ffd5b506138739061384c6137dc610790565b79ffffffffffffffffffffffffffffffffffffffffffffffffffff8416602082015261380d565b5f9190565b73ffffffffffffffffffffffffffffffffffffffff7f000000000000000000000000000000000000000000000000000000000000000016301480613972575b156138e0577f000000000000000000000000000000000000000000000000000000000000000090565b60405160208101907f8b73c3c69bb8fe3d512ecc4cf759cc79239f7b179b0ffacaa9a75d522b39400f82527f000000000000000000000000000000000000000000000000000000000000000060408201527f000000000000000000000000000000000000000000000000000000000000000060608201524660808201523060a082015260a0815261257e60c082610768565b507f000000000000000000000000000000000000000000000000000000000000000046146138b7565b81519190604183036139cb576139c49250602082015190606060408401519301515f1a90613cd8565b9192909190565b50505f9160029190565b600181111561059757806001700100000000000000000000000000000000831015613b08575b613aae613aa4613a9a613a90613a86613a7c613a6b613ab59760048a68010000000000000000613aba9c1015613afb575b640100000000811015613aee575b62010000811015613ae1575b610100811015613ad4575b6010811015613ac7575b1015613abf575b60030260011c90565b613a75818b613125565b0160011c90565b613a75818a613125565b613a758189613125565b613a758188613125565b613a758187613125565b613a758186613125565b8093613125565b821190565b900390565b60011b613a62565b60041c9160021b91613a5b565b60081c9160041b91613a51565b60101c9160081b91613a46565b60201c9160101b91613a3a565b60401c9160201b91613a2c565b5050613aba613ab5613aae613aa4613a9a613a90613a86613a7c613a6b613b2f8a60801c90565b98506801000000000000000097506139fb9650505050505050565b91905b838210613b5a5750505090565b9091928083169080841860011c820180921161231c57845f5265ffffffffffff8260205f2001541665ffffffffffff8416105f14613b9c5750925b9190613b4d565b939250613ba8906128a5565b91613b95565b929092613bba846128a5565b831180613c56575b613bd4613bdb919492939415156134e1565b5f956128b3565b915b818310613bed5750505060019190565b9092919360ff613c2a613c25602088860101517fff000000000000000000000000000000000000000000000000000000000000001690565b613d67565b1690600f8211613c4b5790613c406001926134f7565b019401919290613bdd565b505f94508493505050565b50613bdb613bd47f30780000000000000000000000000000000000000000000000000000000000007fffff000000000000000000000000000000000000000000000000000000000000613cce602089870101517fffff0000000000000000000000000000000000000000000000000000000000001690565b1614915050613bc2565b91907f7fffffffffffffffffffffffffffffff5d576e7357a4501ddfe92f46681b20a08411613d5c579160209360809260ff5f9560405194855216868401526040830152606082015282805260015afa15611739575f5173ffffffffffffffffffffffffffffffffffffffff811615613d5257905f905f90565b505f906001905f90565b5050505f9160039190565b60f81c602f811180613e29575b15613da1577fffffffffffffffffffffffffffffffffffffffffffffffffffffffffffffffd00160ff1690565b6060811180613e1f575b15613dd8577fffffffffffffffffffffffffffffffffffffffffffffffffffffffffffffffa90160ff1690565b6040811180613e15575b15613e0f577fffffffffffffffffffffffffffffffffffffffffffffffffffffffffffffffc90160ff1690565b5060ff90565b5060478110613de2565b5060678110613dab565b50603a8110613d7456fea26469706673582212205db1190856ea469d476a29d9c52e89b65048cc2f1573bb66530d62df7b4cf97564736f6c634300081e0033","linkReferences":{}},"methodIdentifiers":{"BALLOT_TYPEHASH()":"deaaa7cc","CLOCK_MODE()":"4bf5d7e9","COUNTING_MODE()":"dd4e2ba5","EXTENDED_BALLOT_TYPEHASH()":"2fe3e261","cancel(address[],uint256[],bytes[],bytes32)":"452115d6","castVote(uint256,uint8)":"56781388","castVoteBySig(uint256,uint8,address,bytes)":"8ff262e3","castVoteWithReason(uint256,uint8,string)":"7b3c71d3","castVoteWithReasonAndParams(uint256,uint8,string,bytes)":"5f398a14","castVoteWithReasonAndParamsBySig(uint256,uint8,address,string,bytes,bytes)":"5b8d0e0d","clock()":"91ddadf4","eip712Domain()":"84b0196e","execute(address[],uint256[],bytes[],bytes32)":"2656227d","getProposalId(address[],uint256[],bytes[],bytes32)":"a8f8a668","getVotes(address,uint256)":"eb9019d4","getVotesWithParams(address,uint256,bytes)":"9a802a6d","hasVoted(uint256,address)":"43859632","hashProposal(address[],uint256[],bytes[],bytes32)":"c59057e4","name()":"06fdde03","nonces(address)":"7ecebe00","onERC1155BatchReceived(address,address,uint256[],uint256[],bytes)":"bc197c81","onERC1155Received(address,address,uint256,uint256,bytes)":"f23a6e61","onERC721Received(address,address,uint256,bytes)":"150b7a02","proposalDeadline(uint256)":"c01f9e37","proposalEta(uint256)":"ab58fb8e","proposalNeedsQueuing(uint256)":"a9a95294","proposalProposer(uint256)":"143489d0","proposalSnapshot(uint256)":"2d63f693","proposalThreshold()":"b58131b0","proposalVotes(uint256)":"544ffc9c","propose(address[],uint256[],bytes[],string)":"7d5e81e2","queue(address[],uint256[],bytes[],bytes32)":"160cbed7","quorum(uint256)":"f8ce560a","quorumDenominator()":"97c3d334","quorumNumerator()":"a7713a70","quorumNumerator(uint256)":"60c4247f","relay(address,uint256,bytes)":"c28bc2fa","setProposalThreshold(uint256)":"ece40cc1","setVotingDelay(uint48)":"79051887","setVotingPeriod(uint32)":"e540d01d","state(uint256)":"3e4f49e6","supportsInterface(bytes4)":"01ffc9a7","token()":"fc0c546a","updateQuorumNumerator(uint256)":"06f3f9e6","version()":"54fd4d50","votingDelay()":"3932abb1","votingPeriod()":"02a251a3"},"id":70}